{
  "contractName": "Auction",
  "abi": [
    {
      "inputs": [
        {
          "internalType": "string",
          "name": "_name",
          "type": "string"
        },
        {
          "internalType": "uint256",
          "name": "_basePrice",
          "type": "uint256"
        },
        {
          "internalType": "uint256",
          "name": "_bidDuration",
          "type": "uint256"
        },
        {
          "internalType": "uint256",
          "name": "_revealDuration",
          "type": "uint256"
        },
        {
          "internalType": "uint256",
          "name": "_strat",
          "type": "uint256"
        },
        {
          "internalType": "address payable",
          "name": "_seller",
          "type": "address"
        }
      ],
      "payable": false,
      "stateMutability": "nonpayable",
      "type": "constructor"
    },
    {
      "constant": true,
      "inputs": [
        {
          "internalType": "address",
          "name": "",
          "type": "address"
        }
      ],
      "name": "addrToBid",
      "outputs": [
        {
          "internalType": "bytes32",
          "name": "hashedBid",
          "type": "bytes32"
        },
        {
          "internalType": "string",
          "name": "public_key",
          "type": "string"
        },
        {
          "internalType": "uint256",
          "name": "value",
          "type": "uint256"
        }
      ],
      "payable": false,
      "stateMutability": "view",
      "type": "function"
    },
    {
      "constant": true,
      "inputs": [
        {
          "internalType": "address",
          "name": "",
          "type": "address"
        }
      ],
      "name": "balances",
      "outputs": [
        {
          "internalType": "uint256",
          "name": "",
          "type": "uint256"
        }
      ],
      "payable": false,
      "stateMutability": "view",
      "type": "function"
    },
    {
      "constant": false,
      "inputs": [
        {
          "internalType": "bytes32",
          "name": "_hash",
          "type": "bytes32"
        },
        {
          "internalType": "string",
          "name": "_public_key",
          "type": "string"
        }
      ],
      "name": "bid",
      "outputs": [],
      "payable": true,
      "stateMutability": "payable",
      "type": "function"
    },
    {
      "constant": false,
      "inputs": [
        {
          "internalType": "uint256",
          "name": "_amount",
          "type": "uint256"
        }
      ],
      "name": "reveal",
      "outputs": [],
      "payable": false,
      "stateMutability": "nonpayable",
      "type": "function"
    },
    {
      "constant": false,
      "inputs": [],
      "name": "endAuction",
      "outputs": [
        {
          "internalType": "string",
          "name": "",
          "type": "string"
        }
      ],
      "payable": false,
      "stateMutability": "nonpayable",
      "type": "function"
    },
    {
      "constant": false,
      "inputs": [
        {
          "internalType": "string",
          "name": "_encrypted_item",
          "type": "string"
        }
      ],
      "name": "transferItem",
      "outputs": [],
      "payable": false,
      "stateMutability": "nonpayable",
      "type": "function"
    },
    {
      "constant": true,
      "inputs": [],
      "name": "getItem",
      "outputs": [
        {
          "internalType": "string",
          "name": "",
          "type": "string"
        }
      ],
      "payable": false,
      "stateMutability": "view",
      "type": "function"
    },
    {
      "constant": true,
      "inputs": [],
      "name": "getSummart",
      "outputs": [
        {
          "internalType": "string",
          "name": "",
          "type": "string"
        },
        {
          "internalType": "uint256",
          "name": "",
          "type": "uint256"
        },
        {
          "internalType": "uint256",
          "name": "",
          "type": "uint256"
        },
        {
          "internalType": "uint256",
          "name": "",
          "type": "uint256"
        },
        {
          "internalType": "uint256",
          "name": "",
          "type": "uint256"
        },
        {
          "internalType": "uint256",
          "name": "",
          "type": "uint256"
        },
        {
          "internalType": "address",
          "name": "",
          "type": "address"
        }
      ],
      "payable": false,
      "stateMutability": "view",
      "type": "function"
    }
  ],
  "bytecode": "0x60806040523480156200001157600080fd5b5060405162001ec138038062001ec1833981810160405260c08110156200003757600080fd5b81019080805160405193929190846401000000008211156200005857600080fd5b838201915060208201858111156200006f57600080fd5b82518660018202830111640100000000821117156200008d57600080fd5b8083526020830192505050908051906020019080838360005b83811015620000c3578082015181840152602081019050620000a6565b50505050905090810190601f168015620000f15780820380516001836020036101000a031916815260200191505b506040526020018051906020019092919080519060200190929190805190602001909291908051906020019092919080519060200190929190505050856002908051906020019062000145929190620001c4565b5081600181905550846003819055508342016004819055508260045401600581905550806000806101000a81548173ffffffffffffffffffffffffffffffffffffffff021916908373ffffffffffffffffffffffffffffffffffffffff1602179055506000600681905550600060078190555050505050505062000273565b828054600181600116156101000203166002900490600052602060002090601f016020900481019282601f106200020757805160ff191683800117855562000238565b8280016001018555821562000238579182015b82811115620002375782518255916020019190600101906200021a565b5b5090506200024791906200024b565b5090565b6200027091905b808211156200026c57600081600090555060010162000252565b5090565b90565b611c3e80620002836000396000f3fe60806040526004361061007b5760003560e01c8063c2ca0ac51161004e578063c2ca0ac51461036b578063c412eaba146103a6578063e0f1541614610436578063fe67a54b146104fb5761007b565b806306ecbf0b146100805780630f9a83da1461015857806327e235e3146102205780632aa579c214610285575b600080fd5b34801561008c57600080fd5b506100cf600480360360208110156100a357600080fd5b81019080803573ffffffffffffffffffffffffffffffffffffffff16906020019092919050505061058b565b6040518084815260200180602001838152602001828103825284818151815260200191508051906020019080838360005b8381101561011b578082015181840152602081019050610100565b50505050905090810190601f1680156101485780820380516001836020036101000a031916815260200191505b5094505050505060405180910390f35b34801561016457600080fd5b5061021e6004803603602081101561017b57600080fd5b810190808035906020019064010000000081111561019857600080fd5b8201836020820111156101aa57600080fd5b803590602001918460018302840111640100000000831117156101cc57600080fd5b91908080601f016020809104026020016040519081016040528093929190818152602001838380828437600081840152601f19601f82011690508083019250505050505050919291929050505061064d565b005b34801561022c57600080fd5b5061026f6004803603602081101561024357600080fd5b81019080803573ffffffffffffffffffffffffffffffffffffffff1690602001909291905050506107f4565b6040518082815260200191505060405180910390f35b34801561029157600080fd5b5061029a61080c565b60405180806020018881526020018781526020018681526020018581526020018481526020018373ffffffffffffffffffffffffffffffffffffffff1673ffffffffffffffffffffffffffffffffffffffff168152602001828103825289818151815260200191508051906020019080838360005b8381101561032a57808201518184015260208101905061030f565b50505050905090810190601f1680156103575780820380516001836020036101000a031916815260200191505b509850505050505050505060405180910390f35b34801561037757600080fd5b506103a46004803603602081101561038e57600080fd5b81019080803590602001909291905050506108fd565b005b3480156103b257600080fd5b506103bb610bba565b6040518080602001828103825283818151815260200191508051906020019080838360005b838110156103fb5780820151818401526020810190506103e0565b50505050905090810190601f1680156104285780820380516001836020036101000a031916815260200191505b509250505060405180910390f35b6104f96004803603604081101561044c57600080fd5b81019080803590602001909291908035906020019064010000000081111561047357600080fd5b82018360208201111561048557600080fd5b803590602001918460018302840111640100000000831117156104a757600080fd5b91908080601f016020809104026020016040519081016040528093929190818152602001838380828437600081840152601f19601f820116905080830192505050505050509192919290505050610cb7565b005b34801561050757600080fd5b50610510610f9b565b6040518080602001828103825283818151815260200191508051906020019080838360005b83811015610550578082015181840152602081019050610535565b50505050905090810190601f16801561057d5780820380516001836020036101000a031916815260200191505b509250505060405180910390f35b600b602052806000526040600020600091509050806000015490806001018054600181600116156101000203166002900480601f01602080910402602001604051908101604052809291908181526020018280546001816001161561010002031660029004801561063d5780601f106106125761010080835404028352916020019161063d565b820191906000526020600020905b81548152906001019060200180831161062057829003601f168201915b5050505050908060020154905083565b6005544210156106a8576040517f08c379a0000000000000000000000000000000000000000000000000000000008152600401808060200182810382526021815260200180611bc36021913960400191505060405180910390fd5b6000809054906101000a900473ffffffffffffffffffffffffffffffffffffffff1673ffffffffffffffffffffffffffffffffffffffff163373ffffffffffffffffffffffffffffffffffffffff161461076a576040517f08c379a00000000000000000000000000000000000000000000000000000000081526004018080602001828103825260178152602001807f4f6e6c792063616c6c61626c652062792073656c6c657200000000000000000081525060200191505060405180910390fd5b60008060009054906101000a900473ffffffffffffffffffffffffffffffffffffffff1690508073ffffffffffffffffffffffffffffffffffffffff166108fc6007549081150290604051600060405180830381858888f193505050501580156107d8573d6000803e3d6000fd5b5081600990805190602001906107ef929190611a79565b505050565b600a6020528060005260406000206000915090505481565b606060008060008060008060026003546004546005546001546006546000809054906101000a900473ffffffffffffffffffffffffffffffffffffffff16868054600181600116156101000203166002900480601f0160208091040260200160405190810160405280929190818152602001828054600181600116156101000203166002900480156108df5780601f106108b4576101008083540402835291602001916108df565b820191906000526020600020905b8154815290600101906020018083116108c257829003601f168201915b50505050509650965096509650965096509650965090919293949596565b600454421015610975576040517f08c379a00000000000000000000000000000000000000000000000000000000081526004018080602001828103825260208152602001807f52657665616c696e6720706572696f642069732079657420746f20737461727481525060200191505060405180910390fd5b60055442106109ec576040517f08c379a000000000000000000000000000000000000000000000000000000000815260040180806020018281038252601c8152602001807f52657665616c696e6720706572696f642068617320657870697265640000000081525060200191505060405180910390fd5b600b60003373ffffffffffffffffffffffffffffffffffffffff1673ffffffffffffffffffffffffffffffffffffffff1681526020019081526020016000206000015481604051602001808281526020019150506040516020818303038152906040528051906020012014610a6057600080fd5b600354811015610abb576040517f08c379a0000000000000000000000000000000000000000000000000000000008152600401808060200182810382526026815260200180611be46026913960400191505060405180910390fd5b600a60003373ffffffffffffffffffffffffffffffffffffffff1673ffffffffffffffffffffffffffffffffffffffff16815260200190815260200160002054811115610b70576040517f08c379a000000000000000000000000000000000000000000000000000000000815260040180806020018281038252601c8152602001807f426964206c657373207468616e206465706f73697420616d6f756e740000000081525060200191505060405180910390fd5b80600b60003373ffffffffffffffffffffffffffffffffffffffff1673ffffffffffffffffffffffffffffffffffffffff1681526020019081526020016000206002018190555050565b6060600554421015610c17576040517f08c379a0000000000000000000000000000000000000000000000000000000008152600401808060200182810382526021815260200180611bc36021913960400191505060405180910390fd5b60098054600181600116156101000203166002900480601f016020809104026020016040519081016040528092919081815260200182805460018160011615610100020316600290048015610cad5780601f10610c8257610100808354040283529160200191610cad565b820191906000526020600020905b815481529060010190602001808311610c9057829003601f168201915b5050505050905090565b6004544210610d2e576040517f08c379a000000000000000000000000000000000000000000000000000000000815260040180806020018281038252601a8152602001807f42696464696e6720706572696f6420686173206578706972656400000000000081525060200191505060405180910390fd5b6000801b600b60003373ffffffffffffffffffffffffffffffffffffffff1673ffffffffffffffffffffffffffffffffffffffff1681526020019081526020016000206000015414610de8576040517f08c379a00000000000000000000000000000000000000000000000000000000081526004018080602001828103825260208152602001807f4f6e6c79206f6e652062696420706572206164647265737320616c6c6f77656481525060200191505060405180910390fd5b600354341015610e43576040517f08c379a0000000000000000000000000000000000000000000000000000000008152600401808060200182810382526026815260200180611be46026913960400191505060405180910390fd5b60405180606001604052808381526020018281526020016000815250600b60003373ffffffffffffffffffffffffffffffffffffffff1673ffffffffffffffffffffffffffffffffffffffff168152602001908152602001600020600082015181600001556020820151816001019080519060200190610ec4929190611af9565b5060408201518160020155905050600c3390806001815401808255809150509060018203906000526020600020016000909192909190916101000a81548173ffffffffffffffffffffffffffffffffffffffff021916908373ffffffffffffffffffffffffffffffffffffffff1602179055505034600a60003373ffffffffffffffffffffffffffffffffffffffff1673ffffffffffffffffffffffffffffffffffffffff168152602001908152602001600020600082825401925050819055506006600081548092919060010191905055505050565b6060600554421015610ff8576040517f08c379a0000000000000000000000000000000000000000000000000000000008152600401808060200182810382526024815260200180611b9f6024913960400191505060405180910390fd5b6000809054906101000a900473ffffffffffffffffffffffffffffffffffffffff1673ffffffffffffffffffffffffffffffffffffffff163373ffffffffffffffffffffffffffffffffffffffff16146110ba576040517f08c379a000000000000000000000000000000000000000000000000000000000815260040180806020018281038252601c8152602001807f43616e206f6e6c792062652063616c6c65642062792073656c6c65720000000081525060200191505060405180910390fd5b600060015414156112645760008090505b60065481101561125e57600754600b6000600c84815481106110e957fe5b9060005260206000200160009054906101000a900473ffffffffffffffffffffffffffffffffffffffff1673ffffffffffffffffffffffffffffffffffffffff1673ffffffffffffffffffffffffffffffffffffffff16815260200190815260200160002060020154111561125157600b6000600c838154811061116957fe5b9060005260206000200160009054906101000a900473ffffffffffffffffffffffffffffffffffffffff1673ffffffffffffffffffffffffffffffffffffffff1673ffffffffffffffffffffffffffffffffffffffff16815260200190815260200160002060020154600781905550600c81815481106111e557fe5b9060005260206000200160009054906101000a900473ffffffffffffffffffffffffffffffffffffffff16600860006101000a81548173ffffffffffffffffffffffffffffffffffffffff021916908373ffffffffffffffffffffffffffffffffffffffff1602179055505b80806001019150506110cb565b506117ee565b600180541415611518576000600754905060008090505b6006548110156115115781600b6000600c848154811061129757fe5b9060005260206000200160009054906101000a900473ffffffffffffffffffffffffffffffffffffffff1673ffffffffffffffffffffffffffffffffffffffff1673ffffffffffffffffffffffffffffffffffffffff16815260200190815260200160002060020154106114015781600781905550600b6000600c838154811061131d57fe5b9060005260206000200160009054906101000a900473ffffffffffffffffffffffffffffffffffffffff1673ffffffffffffffffffffffffffffffffffffffff1673ffffffffffffffffffffffffffffffffffffffff168152602001908152602001600020600201549150600c818154811061139557fe5b9060005260206000200160009054906101000a900473ffffffffffffffffffffffffffffffffffffffff16600860006101000a81548173ffffffffffffffffffffffffffffffffffffffff021916908373ffffffffffffffffffffffffffffffffffffffff1602179055505b600754600b6000600c848154811061141557fe5b9060005260206000200160009054906101000a900473ffffffffffffffffffffffffffffffffffffffff1673ffffffffffffffffffffffffffffffffffffffff1673ffffffffffffffffffffffffffffffffffffffff168152602001908152602001600020600201541061150457600b6000600c838154811061149457fe5b9060005260206000200160009054906101000a900473ffffffffffffffffffffffffffffffffffffffff1673ffffffffffffffffffffffffffffffffffffffff1673ffffffffffffffffffffffffffffffffffffffff168152602001908152602001600020600201546007819055505b808060010191505061127b565b50506117ed565b600260015414156117ec57600080905060008090505b6006548110156115c357600b6000600c838154811061154957fe5b9060005260206000200160009054906101000a900473ffffffffffffffffffffffffffffffffffffffff1673ffffffffffffffffffffffffffffffffffffffff1673ffffffffffffffffffffffffffffffffffffffff1681526020019081526020016000206002015482019150808060010191505061152e565b50600081905060008090505b6006548110156117e85781600654600b6000600c85815481106115ee57fe5b9060005260206000200160009054906101000a900473ffffffffffffffffffffffffffffffffffffffff1673ffffffffffffffffffffffffffffffffffffffff1673ffffffffffffffffffffffffffffffffffffffff1681526020019081526020016000206002015402840310156117db57600b6000600c838154811061167157fe5b9060005260206000200160009054906101000a900473ffffffffffffffffffffffffffffffffffffffff1673ffffffffffffffffffffffffffffffffffffffff1673ffffffffffffffffffffffffffffffffffffffff16815260200190815260200160002060020154600781905550600c81815481106116ed57fe5b9060005260206000200160009054906101000a900473ffffffffffffffffffffffffffffffffffffffff16600860006101000a81548173ffffffffffffffffffffffffffffffffffffffff021916908373ffffffffffffffffffffffffffffffffffffffff160217905550600654600b6000600c848154811061176c57fe5b9060005260206000200160009054906101000a900473ffffffffffffffffffffffffffffffffffffffff1673ffffffffffffffffffffffffffffffffffffffff1673ffffffffffffffffffffffffffffffffffffffff1681526020019081526020016000206002015402830391505b80806001019150506115cf565b5050505b5b5b600754600a6000600860009054906101000a900473ffffffffffffffffffffffffffffffffffffffff1673ffffffffffffffffffffffffffffffffffffffff1673ffffffffffffffffffffffffffffffffffffffff1681526020019081526020016000206000828254039250508190555060008090505b600654811015611976576000600c828154811061187e57fe5b9060005260206000200160009054906101000a900473ffffffffffffffffffffffffffffffffffffffff1690508073ffffffffffffffffffffffffffffffffffffffff166108fc600a6000600c86815481106118d657fe5b9060005260206000200160009054906101000a900473ffffffffffffffffffffffffffffffffffffffff1673ffffffffffffffffffffffffffffffffffffffff1673ffffffffffffffffffffffffffffffffffffffff168152602001908152602001600020549081150290604051600060405180830381858888f19350505050158015611967573d6000803e3d6000fd5b50508080600101915050611865565b50600b6000600860009054906101000a900473ffffffffffffffffffffffffffffffffffffffff1673ffffffffffffffffffffffffffffffffffffffff1673ffffffffffffffffffffffffffffffffffffffff1681526020019081526020016000206001018054600181600116156101000203166002900480601f016020809104026020016040519081016040528092919081815260200182805460018160011615610100020316600290048015611a6f5780601f10611a4457610100808354040283529160200191611a6f565b820191906000526020600020905b815481529060010190602001808311611a5257829003601f168201915b5050505050905090565b828054600181600116156101000203166002900490600052602060002090601f016020900481019282601f10611aba57805160ff1916838001178555611ae8565b82800160010185558215611ae8579182015b82811115611ae7578251825591602001919060010190611acc565b5b509050611af59190611b79565b5090565b828054600181600116156101000203166002900490600052602060002090601f016020900481019282601f10611b3a57805160ff1916838001178555611b68565b82800160010185558215611b68579182015b82811115611b67578251825591602001919060010190611b4c565b5b509050611b759190611b79565b5090565b611b9b91905b80821115611b97576000816000905550600101611b7f565b5090565b9056fe52657665616c696e6720706572696f6420686173206e6f7420796574206578706972656452657665616c696e6720706572696f642069732079657420746f206578706972654269642073686f756c64206e6f74206265206c657373207468616e2062617365207072696365a265627a7a723158206584dd9b07814e0a77aa576c085c666c86e98943567e9bfe000a0062ae8b762864736f6c63430005100032",
  "source": "pragma solidity >=0.4.0 <0.9.0;\n\n/* Auction strats:\n    0: First Price Sealed-Bid Auction\n    1: Second Price Sealed-Bid Auction\n    2: Average Price Sealed-Bid Auction\n*/\n\ncontract Auction { \n    struct Bid {\n        bytes32 hashedBid;\n        string public_key;\n        uint value;\n    }\n\n    address seller;\n    uint strat;\n    string name;\n    uint basePrice;\n    uint bidEnd;\n    uint revealEnd;\n    uint noBids;\n    uint winAmount;\n    address winner;\n    string encrypted_item;\n\n    mapping(address => uint) public balances;\n    mapping(address => Bid) public addrToBid;\n    address[] bidAddrs;\n    \n\n    constructor(string memory _name, uint _basePrice, uint _bidDuration, uint _revealDuration, uint _strat, address payable _seller) public {\n        name = _name;\n        strat = _strat;\n        basePrice = _basePrice;\n        bidEnd = block.timestamp + _bidDuration;\n        revealEnd = bidEnd + _revealDuration;\n        seller = _seller;\n        noBids = 0;\n        winAmount = 0;    \n    }\n\n    function bid(bytes32 _hash, string memory _public_key) public payable {\n        require(block.timestamp < bidEnd, \"Bidding period has expired\");\n        require(addrToBid[msg.sender].hashedBid == bytes32(0x0), \"Only one bid per address allowed\");\n        require(msg.value >= basePrice, \"Bid should not be less than base price\");\n\n        addrToBid[msg.sender] = Bid(_hash, _public_key, 0);\n        bidAddrs.push(msg.sender);\n        balances[msg.sender] += msg.value;\n        noBids++;\n    }\n    \n    function reveal(uint _amount) public {\n        require(block.timestamp >= bidEnd, \"Revealing period is yet to start\");\n        require(block.timestamp < revealEnd, \"Revealing period has expired\");\n        require(keccak256(abi.encodePacked(_amount)) == addrToBid[msg.sender].hashedBid); //sha3\n        require(_amount >= basePrice, \"Bid should not be less than base price\");\n        require(_amount <= balances[msg.sender], \"Bid less than deposit amount\");\n\n        addrToBid[msg.sender].value = _amount;\n    }\n\n    function endAuction() public returns (string memory) {\n        require(block.timestamp >= revealEnd, \"Revealing period has not yet expired\");\n        require(msg.sender == seller, \"Can only be called by seller\");\n        \n        \n        if(strat == 0){\n            for(uint i=0;i<noBids;i++){\n                if(addrToBid[bidAddrs[i]].value > winAmount){\n                    winAmount = addrToBid[bidAddrs[i]].value;\n                    winner = bidAddrs[i];\n                }\n            }\n        }\n        else if(strat == 1){\n            uint maxAmount = winAmount;\n            for(uint i=0;i<noBids;i++){\n                if(addrToBid[bidAddrs[i]].value >= maxAmount){\n                    winAmount = maxAmount;\n                    maxAmount = addrToBid[bidAddrs[i]].value;\n                    winner = bidAddrs[i];\n                }\n                if(addrToBid[bidAddrs[i]].value >= winAmount){\n                    winAmount = addrToBid[bidAddrs[i]].value;\n                }\n            }\n        }\n        else if(strat == 2){\n            uint totalAmount = 0;\n            for(uint i=0;i<noBids;i++){\n                totalAmount += addrToBid[bidAddrs[i]].value;\n            }\n            uint minDiff = totalAmount;\n            \n            for(uint i=0;i<noBids;i++){\n                if(totalAmount - (addrToBid[bidAddrs[i]].value * noBids) < minDiff){\n                    winAmount = addrToBid[bidAddrs[i]].value;\n                    winner = bidAddrs[i];\n                    minDiff = totalAmount - (addrToBid[bidAddrs[i]].value * noBids); \n                }\n            }\n        }\n\n        // Deduct winning amount from winner\n        balances[winner] -= winAmount;\n\n        //Return the money to the losers\n        for(uint i=0;i<noBids;i++){\n            address payable payable_add = address(uint160(bidAddrs[i])); \n            payable_add.transfer(balances[bidAddrs[i]]);\n        }\n\n        // Return the winner's public key to the seller\n        return addrToBid[winner].public_key;\n    }\n    \n    function transferItem(string memory _encrypted_item) public {\n        require(block.timestamp >= revealEnd, \"Revealing period is yet to expire\");\n        require(msg.sender == seller, \"Only callable by seller\");\n        address payable payable_seller = address(uint160(seller));\n        payable_seller.transfer(winAmount);    \n        encrypted_item = _encrypted_item;\n    }\n\n    function getItem() public view returns (string memory) {\n        require(block.timestamp >= revealEnd, \"Revealing period is yet to expire\");\n        return encrypted_item;\n    }    \n\n    function getSummart() public view returns (string memory, uint, uint, uint, uint, uint, address) {\n        return (name, basePrice, bidEnd, revealEnd, strat, noBids, seller);\n    }\n}\n\n",
  "sourcePath": "/mnt/d/Stuff/sem7/Blockchain/solidity-mart/contracts/Auction.sol",
  "compiler": {
    "name": "solc",
    "version": "0.5.16+commit.9c3226ce.Emscripten.clang"
  },
  "schemaVersion": "3.4.3",
  "updatedAt": "2021-10-26T14:42:03.262Z",
  "devdoc": {
    "methods": {}
  },
  "userdoc": {
    "methods": {}
  }
}