{
  "contractName": "Auction",
  "abi": [
    {
      "inputs": [
        {
          "internalType": "string",
          "name": "_name",
          "type": "string"
        },
        {
          "internalType": "uint256",
          "name": "_basePrice",
          "type": "uint256"
        },
        {
          "internalType": "uint256",
          "name": "_bidDuration",
          "type": "uint256"
        },
        {
          "internalType": "uint256",
          "name": "_revealDuration",
          "type": "uint256"
        },
        {
          "internalType": "uint256",
          "name": "_strat",
          "type": "uint256"
        },
        {
          "internalType": "address payable",
          "name": "_seller",
          "type": "address"
        }
      ],
      "payable": false,
      "stateMutability": "nonpayable",
      "type": "constructor"
    },
    {
      "constant": true,
      "inputs": [
        {
          "internalType": "address",
          "name": "",
          "type": "address"
        }
      ],
      "name": "addrToBid",
      "outputs": [
        {
          "internalType": "bytes32",
          "name": "hashedBid",
          "type": "bytes32"
        },
        {
          "internalType": "string",
          "name": "public_key",
          "type": "string"
        },
        {
          "internalType": "uint256",
          "name": "value",
          "type": "uint256"
        }
      ],
      "payable": false,
      "stateMutability": "view",
      "type": "function"
    },
    {
      "constant": true,
      "inputs": [
        {
          "internalType": "address",
          "name": "",
          "type": "address"
        }
      ],
      "name": "balances",
      "outputs": [
        {
          "internalType": "uint256",
          "name": "",
          "type": "uint256"
        }
      ],
      "payable": false,
      "stateMutability": "view",
      "type": "function"
    },
    {
      "constant": true,
      "inputs": [],
      "name": "revealEnd",
      "outputs": [
        {
          "internalType": "uint256",
          "name": "",
          "type": "uint256"
        }
      ],
      "payable": false,
      "stateMutability": "view",
      "type": "function"
    },
    {
      "constant": true,
      "inputs": [],
      "name": "state",
      "outputs": [
        {
          "internalType": "uint256",
          "name": "",
          "type": "uint256"
        }
      ],
      "payable": false,
      "stateMutability": "view",
      "type": "function"
    },
    {
      "constant": false,
      "inputs": [
        {
          "internalType": "bytes32",
          "name": "_hash",
          "type": "bytes32"
        },
        {
          "internalType": "string",
          "name": "_public_key",
          "type": "string"
        }
      ],
      "name": "bid",
      "outputs": [],
      "payable": true,
      "stateMutability": "payable",
      "type": "function"
    },
    {
      "constant": false,
      "inputs": [
        {
          "internalType": "uint256",
          "name": "_amount",
          "type": "uint256"
        }
      ],
      "name": "reveal",
      "outputs": [],
      "payable": false,
      "stateMutability": "nonpayable",
      "type": "function"
    },
    {
      "constant": false,
      "inputs": [],
      "name": "endAuction",
      "outputs": [
        {
          "internalType": "string",
          "name": "",
          "type": "string"
        }
      ],
      "payable": false,
      "stateMutability": "nonpayable",
      "type": "function"
    },
    {
      "constant": true,
      "inputs": [],
      "name": "getWinner",
      "outputs": [
        {
          "internalType": "string",
          "name": "",
          "type": "string"
        }
      ],
      "payable": false,
      "stateMutability": "view",
      "type": "function"
    },
    {
      "constant": false,
      "inputs": [
        {
          "internalType": "string",
          "name": "_encrypted_item",
          "type": "string"
        }
      ],
      "name": "transferItem",
      "outputs": [],
      "payable": false,
      "stateMutability": "nonpayable",
      "type": "function"
    },
    {
      "constant": true,
      "inputs": [],
      "name": "getItem",
      "outputs": [
        {
          "internalType": "string",
          "name": "",
          "type": "string"
        }
      ],
      "payable": false,
      "stateMutability": "view",
      "type": "function"
    },
    {
      "constant": true,
      "inputs": [],
      "name": "getSummary",
      "outputs": [
        {
          "internalType": "string",
          "name": "",
          "type": "string"
        },
        {
          "internalType": "uint256",
          "name": "",
          "type": "uint256"
        },
        {
          "internalType": "uint256",
          "name": "",
          "type": "uint256"
        },
        {
          "internalType": "uint256",
          "name": "",
          "type": "uint256"
        },
        {
          "internalType": "uint256",
          "name": "",
          "type": "uint256"
        },
        {
          "internalType": "uint256",
          "name": "",
          "type": "uint256"
        },
        {
          "internalType": "uint256",
          "name": "",
          "type": "uint256"
        },
        {
          "internalType": "address",
          "name": "",
          "type": "address"
        },
        {
          "internalType": "uint256",
          "name": "",
          "type": "uint256"
        }
      ],
      "payable": false,
      "stateMutability": "view",
      "type": "function"
    },
    {
      "constant": true,
      "inputs": [
        {
          "internalType": "address",
          "name": "bidder",
          "type": "address"
        }
      ],
      "name": "alreadyBid",
      "outputs": [
        {
          "internalType": "bool",
          "name": "",
          "type": "bool"
        }
      ],
      "payable": false,
      "stateMutability": "view",
      "type": "function"
    }
  ],
  "bytecode": "0x60806040523480156200001157600080fd5b506040516200230338038062002303833981810160405260c08110156200003757600080fd5b81019080805160405193929190846401000000008211156200005857600080fd5b838201915060208201858111156200006f57600080fd5b82518660018202830111640100000000821117156200008d57600080fd5b8083526020830192505050908051906020019080838360005b83811015620000c3578082015181840152602081019050620000a6565b50505050905090810190601f168015620000f15780820380516001836020036101000a031916815260200191505b506040526020018051906020019092919080519060200190929190805190602001909291908051906020019092919080519060200190929190505050856002908051906020019062000145929190620001d9565b50816001819055508460038190555042600a819055508342016004819055508260045401600581905550806000806101000a81548173ffffffffffffffffffffffffffffffffffffffff021916908373ffffffffffffffffffffffffffffffffffffffff160217905550600060068190555083600b8190555082600c81905550600060078190555050505050505062000288565b828054600181600116156101000203166002900490600052602060002090601f016020900481019282601f106200021c57805160ff19168380011785556200024d565b828001600101855582156200024d579182015b828111156200024c5782518255916020019190600101906200022f565b5b5090506200025c919062000260565b5090565b6200028591905b808211156200028157600081600090555060010162000267565b5090565b90565b61206b80620002986000396000f3fe6080604052600436106100a75760003560e01c8063a6e6647711610064578063a6e664771461049e578063c19d93fb146104c9578063c2ca0ac5146104f4578063c412eaba1461052f578063e0f15416146105bf578063fe67a54b14610684576100a7565b806306ecbf0b146100ac5780630f9a83da1461018457806327e235e31461024c5780634051ddac146102b15780638bddf310146103a55780638e7ea5b21461040e575b600080fd5b3480156100b857600080fd5b506100fb600480360360208110156100cf57600080fd5b81019080803573ffffffffffffffffffffffffffffffffffffffff169060200190929190505050610714565b6040518084815260200180602001838152602001828103825284818151815260200191508051906020019080838360005b8381101561014757808201518184015260208101905061012c565b50505050905090810190601f1680156101745780820380516001836020036101000a031916815260200191505b5094505050505060405180910390f35b34801561019057600080fd5b5061024a600480360360208110156101a757600080fd5b81019080803590602001906401000000008111156101c457600080fd5b8201836020820111156101d657600080fd5b803590602001918460018302840111640100000000831117156101f857600080fd5b91908080601f016020809104026020016040519081016040528093929190818152602001838380828437600081840152601f19601f8201169050808301925050505050505091929192905050506107d6565b005b34801561025857600080fd5b5061029b6004803603602081101561026f57600080fd5b81019080803573ffffffffffffffffffffffffffffffffffffffff169060200190929190505050610985565b6040518082815260200191505060405180910390f35b3480156102bd57600080fd5b506102c661099d565b60405180806020018a81526020018981526020018881526020018781526020018681526020018581526020018473ffffffffffffffffffffffffffffffffffffffff1673ffffffffffffffffffffffffffffffffffffffff16815260200183815260200182810382528b818151815260200191508051906020019080838360005b83811015610362578082015181840152602081019050610347565b50505050905090810190601f16801561038f5780820380516001836020036101000a031916815260200191505b509a505050505050505050505060405180910390f35b3480156103b157600080fd5b506103f4600480360360208110156103c857600080fd5b81019080803573ffffffffffffffffffffffffffffffffffffffff169060200190929190505050610a9d565b604051808215151515815260200191505060405180910390f35b34801561041a57600080fd5b50610423610aef565b6040518080602001828103825283818151815260200191508051906020019080838360005b83811015610463578082015181840152602081019050610448565b50505050905090810190601f1680156104905780820380516001836020036101000a031916815260200191505b509250505060405180910390f35b3480156104aa57600080fd5b506104b3610cb5565b6040518082815260200191505060405180910390f35b3480156104d557600080fd5b506104de610cbb565b6040518082815260200191505060405180910390f35b34801561050057600080fd5b5061052d6004803603602081101561051757600080fd5b8101908080359060200190929190505050610cc1565b005b34801561053b57600080fd5b50610544610fe7565b6040518080602001828103825283818151815260200191508051906020019080838360005b83811015610584578082015181840152602081019050610569565b50505050905090810190601f1680156105b15780820380516001836020036101000a031916815260200191505b509250505060405180910390f35b610682600480360360408110156105d557600080fd5b8101908080359060200190929190803590602001906401000000008111156105fc57600080fd5b82018360208201111561060e57600080fd5b8035906020019184600183028401116401000000008311171561063057600080fd5b91908080601f016020809104026020016040519081016040528093929190818152602001838380828437600081840152601f19601f8201169050808301925050505050505091929192905050506110e4565b005b34801561069057600080fd5b506106996113c8565b6040518080602001828103825283818151815260200191508051906020019080838360005b838110156106d95780820151818401526020810190506106be565b50505050905090810190601f1680156107065780820380516001836020036101000a031916815260200191505b509250505060405180910390f35b600e602052806000526040600020600091509050806000015490806001018054600181600116156101000203166002900480601f0160208091040260200160405190810160405280929190818152602001828054600181600116156101000203166002900480156107c65780601f1061079b576101008083540402835291602001916107c6565b820191906000526020600020905b8154815290600101906020018083116107a957829003601f168201915b5050505050908060020154905083565b600554421015610831576040517f08c379a0000000000000000000000000000000000000000000000000000000008152600401808060200182810382526021815260200180611ff06021913960400191505060405180910390fd5b6000809054906101000a900473ffffffffffffffffffffffffffffffffffffffff1673ffffffffffffffffffffffffffffffffffffffff163373ffffffffffffffffffffffffffffffffffffffff16146108f3576040517f08c379a00000000000000000000000000000000000000000000000000000000081526004018080602001828103825260178152602001807f4f6e6c792063616c6c61626c652062792073656c6c657200000000000000000081525060200191505060405180910390fd5b60008060009054906101000a900473ffffffffffffffffffffffffffffffffffffffff1690508073ffffffffffffffffffffffffffffffffffffffff166108fc6007549081150290604051600060405180830381858888f19350505050158015610961573d6000803e3d6000fd5b508160099080519060200190610978929190611ea6565b506004600f819055505050565b600d6020528060005260406000206000915090505481565b60606000806000806000806000806002600354600a546004546005546001546006546000809054906101000a900473ffffffffffffffffffffffffffffffffffffffff16600f54888054600181600116156101000203166002900480601f016020809104026020016040519081016040528092919081815260200182805460018160011615610100020316600290048015610a795780601f10610a4e57610100808354040283529160200191610a79565b820191906000526020600020905b815481529060010190602001808311610a5c57829003601f168201915b50505050509850985098509850985098509850985098509850909192939495969798565b60008060001b600e60008473ffffffffffffffffffffffffffffffffffffffff1673ffffffffffffffffffffffffffffffffffffffff1681526020019081526020016000206000015414159050919050565b60606000809054906101000a900473ffffffffffffffffffffffffffffffffffffffff1673ffffffffffffffffffffffffffffffffffffffff163373ffffffffffffffffffffffffffffffffffffffff1614610bb3576040517f08c379a000000000000000000000000000000000000000000000000000000000815260040180806020018281038252601e8152602001807f4f6e6c792073656c6c65722063616e20676574207468652077696e6e6572000081525060200191505060405180910390fd5b600e6000600860009054906101000a900473ffffffffffffffffffffffffffffffffffffffff1673ffffffffffffffffffffffffffffffffffffffff1673ffffffffffffffffffffffffffffffffffffffff1681526020019081526020016000206001018054600181600116156101000203166002900480601f016020809104026020016040519081016040528092919081815260200182805460018160011615610100020316600290048015610cab5780601f10610c8057610100808354040283529160200191610cab565b820191906000526020600020905b815481529060010190602001808311610c8e57829003601f168201915b5050505050905090565b60055481565b600f5481565b600454421015610d39576040517f08c379a00000000000000000000000000000000000000000000000000000000081526004018080602001828103825260208152602001807f52657665616c696e6720706572696f642069732079657420746f20737461727481525060200191505060405180910390fd5b6005544210610db0576040517f08c379a000000000000000000000000000000000000000000000000000000000815260040180806020018281038252601c8152602001807f52657665616c696e6720706572696f642068617320657870697265640000000081525060200191505060405180910390fd5b600e60003373ffffffffffffffffffffffffffffffffffffffff1673ffffffffffffffffffffffffffffffffffffffff1681526020019081526020016000206000015481604051602001808281526020019150506040516020818303038152906040528051906020012014610e8d576040517f08c379a000000000000000000000000000000000000000000000000000000000815260040180806020018281038252600e8152602001807f48617368206e6f7420657175616c00000000000000000000000000000000000081525060200191505060405180910390fd5b600354811015610ee8576040517f08c379a00000000000000000000000000000000000000000000000000000000081526004018080602001828103825260268152602001806120116026913960400191505060405180910390fd5b600d60003373ffffffffffffffffffffffffffffffffffffffff1673ffffffffffffffffffffffffffffffffffffffff16815260200190815260200160002054811115610f9d576040517f08c379a000000000000000000000000000000000000000000000000000000000815260040180806020018281038252601c8152602001807f426964206c657373207468616e206465706f73697420616d6f756e740000000081525060200191505060405180910390fd5b80600e60003373ffffffffffffffffffffffffffffffffffffffff1673ffffffffffffffffffffffffffffffffffffffff1681526020019081526020016000206002018190555050565b6060600554421015611044576040517f08c379a0000000000000000000000000000000000000000000000000000000008152600401808060200182810382526021815260200180611ff06021913960400191505060405180910390fd5b60098054600181600116156101000203166002900480601f0160208091040260200160405190810160405280929190818152602001828054600181600116156101000203166002900480156110da5780601f106110af576101008083540402835291602001916110da565b820191906000526020600020905b8154815290600101906020018083116110bd57829003601f168201915b5050505050905090565b600454421061115b576040517f08c379a000000000000000000000000000000000000000000000000000000000815260040180806020018281038252601a8152602001807f42696464696e6720706572696f6420686173206578706972656400000000000081525060200191505060405180910390fd5b6000801b600e60003373ffffffffffffffffffffffffffffffffffffffff1673ffffffffffffffffffffffffffffffffffffffff1681526020019081526020016000206000015414611215576040517f08c379a00000000000000000000000000000000000000000000000000000000081526004018080602001828103825260208152602001807f4f6e6c79206f6e652062696420706572206164647265737320616c6c6f77656481525060200191505060405180910390fd5b600354341015611270576040517f08c379a00000000000000000000000000000000000000000000000000000000081526004018080602001828103825260268152602001806120116026913960400191505060405180910390fd5b60405180606001604052808381526020018281526020016000815250600e60003373ffffffffffffffffffffffffffffffffffffffff1673ffffffffffffffffffffffffffffffffffffffff1681526020019081526020016000206000820151816000015560208201518160010190805190602001906112f1929190611f26565b506040820151816002015590505060103390806001815401808255809150509060018203906000526020600020016000909192909190916101000a81548173ffffffffffffffffffffffffffffffffffffffff021916908373ffffffffffffffffffffffffffffffffffffffff1602179055505034600d60003373ffffffffffffffffffffffffffffffffffffffff1673ffffffffffffffffffffffffffffffffffffffff168152602001908152602001600020600082825401925050819055506006600081548092919060010191905055505050565b6060600554421015611425576040517f08c379a0000000000000000000000000000000000000000000000000000000008152600401808060200182810382526024815260200180611fcc6024913960400191505060405180910390fd5b6000809054906101000a900473ffffffffffffffffffffffffffffffffffffffff1673ffffffffffffffffffffffffffffffffffffffff163373ffffffffffffffffffffffffffffffffffffffff16146114e7576040517f08c379a000000000000000000000000000000000000000000000000000000000815260040180806020018281038252601c8152602001807f43616e206f6e6c792062652063616c6c65642062792073656c6c65720000000081525060200191505060405180910390fd5b600060015414156116915760008090505b60065481101561168b57600754600e60006010848154811061151657fe5b9060005260206000200160009054906101000a900473ffffffffffffffffffffffffffffffffffffffff1673ffffffffffffffffffffffffffffffffffffffff1673ffffffffffffffffffffffffffffffffffffffff16815260200190815260200160002060020154111561167e57600e60006010838154811061159657fe5b9060005260206000200160009054906101000a900473ffffffffffffffffffffffffffffffffffffffff1673ffffffffffffffffffffffffffffffffffffffff1673ffffffffffffffffffffffffffffffffffffffff168152602001908152602001600020600201546007819055506010818154811061161257fe5b9060005260206000200160009054906101000a900473ffffffffffffffffffffffffffffffffffffffff16600860006101000a81548173ffffffffffffffffffffffffffffffffffffffff021916908373ffffffffffffffffffffffffffffffffffffffff1602179055505b80806001019150506114f8565b50611c1b565b600180541415611945576000600754905060008090505b60065481101561193e5781600e6000601084815481106116c457fe5b9060005260206000200160009054906101000a900473ffffffffffffffffffffffffffffffffffffffff1673ffffffffffffffffffffffffffffffffffffffff1673ffffffffffffffffffffffffffffffffffffffff168152602001908152602001600020600201541061182e5781600781905550600e60006010838154811061174a57fe5b9060005260206000200160009054906101000a900473ffffffffffffffffffffffffffffffffffffffff1673ffffffffffffffffffffffffffffffffffffffff1673ffffffffffffffffffffffffffffffffffffffff168152602001908152602001600020600201549150601081815481106117c257fe5b9060005260206000200160009054906101000a900473ffffffffffffffffffffffffffffffffffffffff16600860006101000a81548173ffffffffffffffffffffffffffffffffffffffff021916908373ffffffffffffffffffffffffffffffffffffffff1602179055505b600754600e60006010848154811061184257fe5b9060005260206000200160009054906101000a900473ffffffffffffffffffffffffffffffffffffffff1673ffffffffffffffffffffffffffffffffffffffff1673ffffffffffffffffffffffffffffffffffffffff168152602001908152602001600020600201541061193157600e6000601083815481106118c157fe5b9060005260206000200160009054906101000a900473ffffffffffffffffffffffffffffffffffffffff1673ffffffffffffffffffffffffffffffffffffffff1673ffffffffffffffffffffffffffffffffffffffff168152602001908152602001600020600201546007819055505b80806001019150506116a8565b5050611c1a565b60026001541415611c1957600080905060008090505b6006548110156119f057600e60006010838154811061197657fe5b9060005260206000200160009054906101000a900473ffffffffffffffffffffffffffffffffffffffff1673ffffffffffffffffffffffffffffffffffffffff1673ffffffffffffffffffffffffffffffffffffffff1681526020019081526020016000206002015482019150808060010191505061195b565b50600081905060008090505b600654811015611c155781600654600e600060108581548110611a1b57fe5b9060005260206000200160009054906101000a900473ffffffffffffffffffffffffffffffffffffffff1673ffffffffffffffffffffffffffffffffffffffff1673ffffffffffffffffffffffffffffffffffffffff168152602001908152602001600020600201540284031015611c0857600e600060108381548110611a9e57fe5b9060005260206000200160009054906101000a900473ffffffffffffffffffffffffffffffffffffffff1673ffffffffffffffffffffffffffffffffffffffff1673ffffffffffffffffffffffffffffffffffffffff1681526020019081526020016000206002015460078190555060108181548110611b1a57fe5b9060005260206000200160009054906101000a900473ffffffffffffffffffffffffffffffffffffffff16600860006101000a81548173ffffffffffffffffffffffffffffffffffffffff021916908373ffffffffffffffffffffffffffffffffffffffff160217905550600654600e600060108481548110611b9957fe5b9060005260206000200160009054906101000a900473ffffffffffffffffffffffffffffffffffffffff1673ffffffffffffffffffffffffffffffffffffffff1673ffffffffffffffffffffffffffffffffffffffff1681526020019081526020016000206002015402830391505b80806001019150506119fc565b5050505b5b5b600754600d6000600860009054906101000a900473ffffffffffffffffffffffffffffffffffffffff1673ffffffffffffffffffffffffffffffffffffffff1673ffffffffffffffffffffffffffffffffffffffff1681526020019081526020016000206000828254039250508190555060008090505b600654811015611da357600060108281548110611cab57fe5b9060005260206000200160009054906101000a900473ffffffffffffffffffffffffffffffffffffffff1690508073ffffffffffffffffffffffffffffffffffffffff166108fc600d600060108681548110611d0357fe5b9060005260206000200160009054906101000a900473ffffffffffffffffffffffffffffffffffffffff1673ffffffffffffffffffffffffffffffffffffffff1673ffffffffffffffffffffffffffffffffffffffff168152602001908152602001600020549081150290604051600060405180830381858888f19350505050158015611d94573d6000803e3d6000fd5b50508080600101915050611c92565b50600e6000600860009054906101000a900473ffffffffffffffffffffffffffffffffffffffff1673ffffffffffffffffffffffffffffffffffffffff1673ffffffffffffffffffffffffffffffffffffffff1681526020019081526020016000206001018054600181600116156101000203166002900480601f016020809104026020016040519081016040528092919081815260200182805460018160011615610100020316600290048015611e9c5780601f10611e7157610100808354040283529160200191611e9c565b820191906000526020600020905b815481529060010190602001808311611e7f57829003601f168201915b5050505050905090565b828054600181600116156101000203166002900490600052602060002090601f016020900481019282601f10611ee757805160ff1916838001178555611f15565b82800160010185558215611f15579182015b82811115611f14578251825591602001919060010190611ef9565b5b509050611f229190611fa6565b5090565b828054600181600116156101000203166002900490600052602060002090601f016020900481019282601f10611f6757805160ff1916838001178555611f95565b82800160010185558215611f95579182015b82811115611f94578251825591602001919060010190611f79565b5b509050611fa29190611fa6565b5090565b611fc891905b80821115611fc4576000816000905550600101611fac565b5090565b9056fe52657665616c696e6720706572696f6420686173206e6f7420796574206578706972656452657665616c696e6720706572696f642069732079657420746f206578706972654269642073686f756c64206e6f74206265206c657373207468616e2062617365207072696365a265627a7a72315820864c858018041f5fa84b5c84f07f0188f76a01db21a173f694e67c8b9f7f8dd364736f6c63430005100032",
  "source": "pragma solidity >=0.4.0 <0.9.0;\n\n/* Auction strats:\n    0: First Price Sealed-Bid Auction\n    1: Second Price Sealed-Bid Auction\n    2: Average Price Sealed-Bid Auction\n*/\n\n/**\n * @title Auction\n * @author Akshat Chhajer, Shivansh Seth, Istasis Mishra\n  * @dev A smart contract to create and manage a single auction\n */\ncontract Auction { \n    struct Bid {\n        bytes32 hashedBid;\n        string public_key;\n        uint value;\n    }\n\n    address seller;\n    uint strat;\n    string name;\n    uint basePrice;\n    uint bidEnd;\n    uint public revealEnd;\n    uint noBids;\n    uint winAmount;\n    address winner;\n    string encrypted_item;\n    uint auctionStart;\n    uint bidDuration;\n    uint revealDuration;\n    mapping(address => uint) public balances;\n    mapping(address => Bid) public addrToBid;\n    uint public state; // 0 -> ongoing, 1 -> reveal period, 2 -> Over, 3 -> Ended, 4 -> transferred \n    address[] bidAddrs;\n    \n    /**\n     * @dev Constructor for the contract. Creates a new auction\n     * @param _name Name of the the listed item\n     * @param _basePrice Base price of the item\n     * @param _bidDuration Duration of the bid\n     * @param _revealDuration Duration of the reveal period\n     * @param _strat Auction strategy or format\n     * @param _seller Address of the person creating the listing\n    */ \n    constructor(string memory _name, uint _basePrice, uint _bidDuration, uint _revealDuration, uint _strat, address payable _seller) public {\n        name = _name;\n        strat = _strat;\n        basePrice = _basePrice;\n        auctionStart = block.timestamp;\n        bidEnd = block.timestamp + _bidDuration;\n        revealEnd = bidEnd + _revealDuration;\n        seller = _seller;\n        noBids = 0;\n        bidDuration = _bidDuration;\n        revealDuration = _revealDuration;\n        winAmount = 0;    \n    }\n\n    /**\n     * @dev To be called to place a bid\n     * @param _hash the hashed value of the bid amount to keep it secret\n     * @param _public_key Public key corresponding to the buyers private key. This key will be used by the seller to encrypt the item string before transfer. The encryption algorithm has to be decided beforehand (Test cases use RSA)\n    */\n    function bid(bytes32 _hash, string memory _public_key) public payable {\n        require(block.timestamp < bidEnd, \"Bidding period has expired\");\n        require(addrToBid[msg.sender].hashedBid == bytes32(0x0), \"Only one bid per address allowed\");\n        require(msg.value >= basePrice, \"Bid should not be less than base price\");\n\n        addrToBid[msg.sender] = Bid(_hash, _public_key, 0);\n        bidAddrs.push(msg.sender);\n        balances[msg.sender] += msg.value;\n        noBids++;\n    }\n    \n    /**\n     * @dev To be called by the buyer to reveal the bid during bidding period\n     * @param _amount The actual bid amount\n    */\n    function reveal(uint _amount) public {\n        require(block.timestamp >= bidEnd, \"Revealing period is yet to start\");\n        require(block.timestamp < revealEnd, \"Revealing period has expired\");\n        require(keccak256(abi.encodePacked(_amount)) == addrToBid[msg.sender].hashedBid, 'Hash not equal'); //sha3\n        require(_amount >= basePrice, \"Bid should not be less than base price\");\n        require(_amount <= balances[msg.sender], \"Bid less than deposit amount\");\n\n        addrToBid[msg.sender].value = _amount;\n    }\n\n    /**\n     * @dev To be called by seller to end the auction, \n     * @return string (winners public key)\n    */ \n    function endAuction() public returns (string memory) {\n        require(block.timestamp >= revealEnd, \"Revealing period has not yet expired\");\n        require(msg.sender == seller, \"Can only be called by seller\");\n        \n        \n        if(strat == 0){\n            for(uint i=0;i<noBids;i++){\n                if(addrToBid[bidAddrs[i]].value > winAmount){\n                    winAmount = addrToBid[bidAddrs[i]].value;\n                    winner = bidAddrs[i];\n                }\n            }\n        }\n        else if(strat == 1){\n            uint maxAmount = winAmount;\n            for(uint i=0;i<noBids;i++){\n                if(addrToBid[bidAddrs[i]].value >= maxAmount){\n                    winAmount = maxAmount;\n                    maxAmount = addrToBid[bidAddrs[i]].value;\n                    winner = bidAddrs[i];\n                }\n                if(addrToBid[bidAddrs[i]].value >= winAmount){\n                    winAmount = addrToBid[bidAddrs[i]].value;\n                }\n            }\n        }\n        else if(strat == 2){\n            uint totalAmount = 0;\n            for(uint i=0;i<noBids;i++){\n                totalAmount += addrToBid[bidAddrs[i]].value;\n            }\n            uint minDiff = totalAmount;\n            \n            for(uint i=0;i<noBids;i++){\n                if(totalAmount - (addrToBid[bidAddrs[i]].value * noBids) < minDiff){\n                    winAmount = addrToBid[bidAddrs[i]].value;\n                    winner = bidAddrs[i];\n                    minDiff = totalAmount - (addrToBid[bidAddrs[i]].value * noBids); \n                }\n            }\n        }\n\n        // Deduct winning amount from winner\n        balances[winner] -= winAmount;\n\n        //Return the money to the losers\n        for(uint i=0;i<noBids;i++){\n            address payable payable_add = address(uint160(bidAddrs[i])); \n            payable_add.transfer(balances[bidAddrs[i]]);\n        }\n\n        // Return the winner's public key to the seller\n        return addrToBid[winner].public_key;\n        state = 3;\n    }\n    \n    function getWinner() public view returns (string memory) {\n        require (msg.sender == seller, \"Only seller can get the winner\");\n        return addrToBid[winner].public_key;\n    }\n    /**\n     * @dev To be called by seller on hearing a SaleInitiated() event. Emits a ItemTransferred() event which provides the encrypted string to the buyer (or anyone else listening)\n     * @param _encrypted_item Item string encrypted with the public key of the buyer\n     */\n    function transferItem(string memory _encrypted_item) public {\n        require(block.timestamp >= revealEnd, \"Revealing period is yet to expire\");\n        require(msg.sender == seller, \"Only callable by seller\");\n        address payable payable_seller = address(uint160(seller));\n        payable_seller.transfer(winAmount);    \n        encrypted_item = _encrypted_item;\n        state = 4;\n    }\n\n    /**\n     * @dev To be called by buyer to receive the encypted item\n     * @return string\n     */\n    function getItem() public view returns (string memory) {\n        require(block.timestamp >= revealEnd, \"Revealing period is yet to expire\");\n        return encrypted_item;\n    }    \n\n    function getSummary() public view returns (string memory, uint, uint, uint, uint, uint, uint, address, uint) {\n        return (name, basePrice, auctionStart, bidEnd, revealEnd, strat, noBids, seller, state);\n    }\n\n    function alreadyBid(address bidder) public view returns (bool) {\n        return (addrToBid[bidder].hashedBid != bytes32(0x0));\n    }\n}\n\n",
  "sourcePath": "/mnt/d/Stuff/Sem7/Blockchain/solidity-mart/contracts/Auction.sol",
  "compiler": {
    "name": "solc",
    "version": "0.5.16+commit.9c3226ce.Emscripten.clang"
  },
  "schemaVersion": "3.4.3",
  "updatedAt": "2021-11-13T13:55:43.449Z",
  "devdoc": {
    "author": "Akshat Chhajer, Shivansh Seth, Istasis Mishra",
    "details": "A smart contract to create and manage a single auction",
    "methods": {
      "bid(bytes32,string)": {
        "details": "To be called to place a bid",
        "params": {
          "_hash": "the hashed value of the bid amount to keep it secret",
          "_public_key": "Public key corresponding to the buyers private key. This key will be used by the seller to encrypt the item string before transfer. The encryption algorithm has to be decided beforehand (Test cases use RSA)"
        }
      },
      "constructor": {
        "details": "Constructor for the contract. Creates a new auction",
        "params": {
          "_basePrice": "Base price of the item",
          "_bidDuration": "Duration of the bid",
          "_name": "Name of the the listed item",
          "_revealDuration": "Duration of the reveal period",
          "_seller": "Address of the person creating the listing",
          "_strat": "Auction strategy or format"
        }
      },
      "endAuction()": {
        "details": "To be called by seller to end the auction, ",
        "return": "string (winners public key)"
      },
      "getItem()": {
        "details": "To be called by buyer to receive the encypted item",
        "return": "string"
      },
      "reveal(uint256)": {
        "details": "To be called by the buyer to reveal the bid during bidding period",
        "params": {
          "_amount": "The actual bid amount"
        }
      },
      "transferItem(string)": {
        "details": "To be called by seller on hearing a SaleInitiated() event. Emits a ItemTransferred() event which provides the encrypted string to the buyer (or anyone else listening)",
        "params": {
          "_encrypted_item": "Item string encrypted with the public key of the buyer"
        }
      }
    },
    "title": "Auction"
  },
  "userdoc": {
    "methods": {}
  }
}