{
  "contractName": "Auction",
  "abi": [
    {
      "inputs": [
        {
          "internalType": "string",
          "name": "_name",
          "type": "string"
        },
        {
          "internalType": "uint256",
          "name": "_basePrice",
          "type": "uint256"
        },
        {
          "internalType": "uint256",
          "name": "_bidDuration",
          "type": "uint256"
        },
        {
          "internalType": "uint256",
          "name": "_revealDuration",
          "type": "uint256"
        },
        {
          "internalType": "uint256",
          "name": "_strat",
          "type": "uint256"
        },
        {
          "internalType": "address payable",
          "name": "_seller",
          "type": "address"
        }
      ],
      "payable": false,
      "stateMutability": "nonpayable",
      "type": "constructor"
    },
    {
      "constant": true,
      "inputs": [
        {
          "internalType": "address",
          "name": "",
          "type": "address"
        }
      ],
      "name": "addrToBid",
      "outputs": [
        {
          "internalType": "bytes32",
          "name": "hashedBid",
          "type": "bytes32"
        },
        {
          "internalType": "string",
          "name": "public_key",
          "type": "string"
        },
        {
          "internalType": "uint256",
          "name": "value",
          "type": "uint256"
        }
      ],
      "payable": false,
      "stateMutability": "view",
      "type": "function"
    },
    {
      "constant": true,
      "inputs": [
        {
          "internalType": "address",
          "name": "",
          "type": "address"
        }
      ],
      "name": "balances",
      "outputs": [
        {
          "internalType": "uint256",
          "name": "",
          "type": "uint256"
        }
      ],
      "payable": false,
      "stateMutability": "view",
      "type": "function"
    },
    {
      "constant": true,
      "inputs": [],
      "name": "revealEnd",
      "outputs": [
        {
          "internalType": "uint256",
          "name": "",
          "type": "uint256"
        }
      ],
      "payable": false,
      "stateMutability": "view",
      "type": "function"
    },
    {
      "constant": false,
      "inputs": [
        {
          "internalType": "bytes32",
          "name": "_hash",
          "type": "bytes32"
        },
        {
          "internalType": "string",
          "name": "_public_key",
          "type": "string"
        }
      ],
      "name": "bid",
      "outputs": [],
      "payable": true,
      "stateMutability": "payable",
      "type": "function"
    },
    {
      "constant": false,
      "inputs": [
        {
          "internalType": "uint256",
          "name": "_amount",
          "type": "uint256"
        }
      ],
      "name": "reveal",
      "outputs": [],
      "payable": false,
      "stateMutability": "nonpayable",
      "type": "function"
    },
    {
      "constant": false,
      "inputs": [],
      "name": "endAuction",
      "outputs": [
        {
          "internalType": "string",
          "name": "",
          "type": "string"
        }
      ],
      "payable": false,
      "stateMutability": "nonpayable",
      "type": "function"
    },
    {
      "constant": false,
      "inputs": [
        {
          "internalType": "string",
          "name": "_encrypted_item",
          "type": "string"
        }
      ],
      "name": "transferItem",
      "outputs": [],
      "payable": false,
      "stateMutability": "nonpayable",
      "type": "function"
    },
    {
      "constant": true,
      "inputs": [],
      "name": "getItem",
      "outputs": [
        {
          "internalType": "string",
          "name": "",
          "type": "string"
        }
      ],
      "payable": false,
      "stateMutability": "view",
      "type": "function"
    },
    {
      "constant": true,
      "inputs": [],
      "name": "getSummary",
      "outputs": [
        {
          "internalType": "string",
          "name": "",
          "type": "string"
        },
        {
          "internalType": "uint256",
          "name": "",
          "type": "uint256"
        },
        {
          "internalType": "uint256",
          "name": "",
          "type": "uint256"
        },
        {
          "internalType": "uint256",
          "name": "",
          "type": "uint256"
        },
        {
          "internalType": "uint256",
          "name": "",
          "type": "uint256"
        },
        {
          "internalType": "uint256",
          "name": "",
          "type": "uint256"
        },
        {
          "internalType": "uint256",
          "name": "",
          "type": "uint256"
        },
        {
          "internalType": "address",
          "name": "",
          "type": "address"
        }
      ],
      "payable": false,
      "stateMutability": "view",
      "type": "function"
    },
    {
      "constant": true,
      "inputs": [
        {
          "internalType": "address",
          "name": "bidder",
          "type": "address"
        }
      ],
      "name": "alreadyBid",
      "outputs": [
        {
          "internalType": "bool",
          "name": "",
          "type": "bool"
        }
      ],
      "payable": false,
      "stateMutability": "view",
      "type": "function"
    }
  ],
  "bytecode": "0x60806040523480156200001157600080fd5b506040516200205038038062002050833981810160405260c08110156200003757600080fd5b81019080805160405193929190846401000000008211156200005857600080fd5b838201915060208201858111156200006f57600080fd5b82518660018202830111640100000000821117156200008d57600080fd5b8083526020830192505050908051906020019080838360005b83811015620000c3578082015181840152602081019050620000a6565b50505050905090810190601f168015620000f15780820380516001836020036101000a031916815260200191505b506040526020018051906020019092919080519060200190929190805190602001909291908051906020019092919080519060200190929190505050856002908051906020019062000145929190620001d9565b50816001819055508460038190555042600a819055508342016004819055508260045401600581905550806000806101000a81548173ffffffffffffffffffffffffffffffffffffffff021916908373ffffffffffffffffffffffffffffffffffffffff160217905550600060068190555083600b8190555082600c81905550600060078190555050505050505062000288565b828054600181600116156101000203166002900490600052602060002090601f016020900481019282601f106200021c57805160ff19168380011785556200024d565b828001600101855582156200024d579182015b828111156200024c5782518255916020019190600101906200022f565b5b5090506200025c919062000260565b5090565b6200028591905b808211156200028157600081600090555060010162000267565b5090565b90565b611db880620002986000396000f3fe6080604052600436106100915760003560e01c8063a6e6647711610059578063a6e66477146103f1578063c2ca0ac51461041c578063c412eaba14610457578063e0f15416146104e7578063fe67a54b146105ac57610091565b806306ecbf0b146100965780630f9a83da1461016e57806327e235e3146102365780634051ddac1461029b5780638bddf31014610388575b600080fd5b3480156100a257600080fd5b506100e5600480360360208110156100b957600080fd5b81019080803573ffffffffffffffffffffffffffffffffffffffff16906020019092919050505061063c565b6040518084815260200180602001838152602001828103825284818151815260200191508051906020019080838360005b83811015610131578082015181840152602081019050610116565b50505050905090810190601f16801561015e5780820380516001836020036101000a031916815260200191505b5094505050505060405180910390f35b34801561017a57600080fd5b506102346004803603602081101561019157600080fd5b81019080803590602001906401000000008111156101ae57600080fd5b8201836020820111156101c057600080fd5b803590602001918460018302840111640100000000831117156101e257600080fd5b91908080601f016020809104026020016040519081016040528093929190818152602001838380828437600081840152601f19601f8201169050808301925050505050505091929192905050506106fe565b005b34801561024257600080fd5b506102856004803603602081101561025957600080fd5b81019080803573ffffffffffffffffffffffffffffffffffffffff1690602001909291905050506108a5565b6040518082815260200191505060405180910390f35b3480156102a757600080fd5b506102b06108bd565b60405180806020018981526020018881526020018781526020018681526020018581526020018481526020018373ffffffffffffffffffffffffffffffffffffffff1673ffffffffffffffffffffffffffffffffffffffff16815260200182810382528a818151815260200191508051906020019080838360005b8381101561034657808201518184015260208101905061032b565b50505050905090810190601f1680156103735780820380516001836020036101000a031916815260200191505b50995050505050505050505060405180910390f35b34801561039457600080fd5b506103d7600480360360208110156103ab57600080fd5b81019080803573ffffffffffffffffffffffffffffffffffffffff1690602001909291905050506109b6565b604051808215151515815260200191505060405180910390f35b3480156103fd57600080fd5b50610406610a08565b6040518082815260200191505060405180910390f35b34801561042857600080fd5b506104556004803603602081101561043f57600080fd5b8101908080359060200190929190505050610a0e565b005b34801561046357600080fd5b5061046c610d34565b6040518080602001828103825283818151815260200191508051906020019080838360005b838110156104ac578082015181840152602081019050610491565b50505050905090810190601f1680156104d95780820380516001836020036101000a031916815260200191505b509250505060405180910390f35b6105aa600480360360408110156104fd57600080fd5b81019080803590602001909291908035906020019064010000000081111561052457600080fd5b82018360208201111561053657600080fd5b8035906020019184600183028401116401000000008311171561055857600080fd5b91908080601f016020809104026020016040519081016040528093929190818152602001838380828437600081840152601f19601f820116905080830192505050505050509192919290505050610e31565b005b3480156105b857600080fd5b506105c1611115565b6040518080602001828103825283818151815260200191508051906020019080838360005b838110156106015780820151818401526020810190506105e6565b50505050905090810190601f16801561062e5780820380516001836020036101000a031916815260200191505b509250505060405180910390f35b600e602052806000526040600020600091509050806000015490806001018054600181600116156101000203166002900480601f0160208091040260200160405190810160405280929190818152602001828054600181600116156101000203166002900480156106ee5780601f106106c3576101008083540402835291602001916106ee565b820191906000526020600020905b8154815290600101906020018083116106d157829003601f168201915b5050505050908060020154905083565b600554421015610759576040517f08c379a0000000000000000000000000000000000000000000000000000000008152600401808060200182810382526021815260200180611d3d6021913960400191505060405180910390fd5b6000809054906101000a900473ffffffffffffffffffffffffffffffffffffffff1673ffffffffffffffffffffffffffffffffffffffff163373ffffffffffffffffffffffffffffffffffffffff161461081b576040517f08c379a00000000000000000000000000000000000000000000000000000000081526004018080602001828103825260178152602001807f4f6e6c792063616c6c61626c652062792073656c6c657200000000000000000081525060200191505060405180910390fd5b60008060009054906101000a900473ffffffffffffffffffffffffffffffffffffffff1690508073ffffffffffffffffffffffffffffffffffffffff166108fc6007549081150290604051600060405180830381858888f19350505050158015610889573d6000803e3d6000fd5b5081600990805190602001906108a0929190611bf3565b505050565b600d6020528060005260406000206000915090505481565b606060008060008060008060006002600354600a54600b54600c546001546006546000809054906101000a900473ffffffffffffffffffffffffffffffffffffffff16878054600181600116156101000203166002900480601f0160208091040260200160405190810160405280929190818152602001828054600181600116156101000203166002900480156109955780601f1061096a57610100808354040283529160200191610995565b820191906000526020600020905b81548152906001019060200180831161097857829003601f168201915b50505050509750975097509750975097509750975097509091929394959697565b60008060001b600e60008473ffffffffffffffffffffffffffffffffffffffff1673ffffffffffffffffffffffffffffffffffffffff1681526020019081526020016000206000015414159050919050565b60055481565b600454421015610a86576040517f08c379a00000000000000000000000000000000000000000000000000000000081526004018080602001828103825260208152602001807f52657665616c696e6720706572696f642069732079657420746f20737461727481525060200191505060405180910390fd5b6005544210610afd576040517f08c379a000000000000000000000000000000000000000000000000000000000815260040180806020018281038252601c8152602001807f52657665616c696e6720706572696f642068617320657870697265640000000081525060200191505060405180910390fd5b600e60003373ffffffffffffffffffffffffffffffffffffffff1673ffffffffffffffffffffffffffffffffffffffff1681526020019081526020016000206000015481604051602001808281526020019150506040516020818303038152906040528051906020012014610bda576040517f08c379a000000000000000000000000000000000000000000000000000000000815260040180806020018281038252600e8152602001807f48617368206e6f7420657175616c00000000000000000000000000000000000081525060200191505060405180910390fd5b600354811015610c35576040517f08c379a0000000000000000000000000000000000000000000000000000000008152600401808060200182810382526026815260200180611d5e6026913960400191505060405180910390fd5b600d60003373ffffffffffffffffffffffffffffffffffffffff1673ffffffffffffffffffffffffffffffffffffffff16815260200190815260200160002054811115610cea576040517f08c379a000000000000000000000000000000000000000000000000000000000815260040180806020018281038252601c8152602001807f426964206c657373207468616e206465706f73697420616d6f756e740000000081525060200191505060405180910390fd5b80600e60003373ffffffffffffffffffffffffffffffffffffffff1673ffffffffffffffffffffffffffffffffffffffff1681526020019081526020016000206002018190555050565b6060600554421015610d91576040517f08c379a0000000000000000000000000000000000000000000000000000000008152600401808060200182810382526021815260200180611d3d6021913960400191505060405180910390fd5b60098054600181600116156101000203166002900480601f016020809104026020016040519081016040528092919081815260200182805460018160011615610100020316600290048015610e275780601f10610dfc57610100808354040283529160200191610e27565b820191906000526020600020905b815481529060010190602001808311610e0a57829003601f168201915b5050505050905090565b6004544210610ea8576040517f08c379a000000000000000000000000000000000000000000000000000000000815260040180806020018281038252601a8152602001807f42696464696e6720706572696f6420686173206578706972656400000000000081525060200191505060405180910390fd5b6000801b600e60003373ffffffffffffffffffffffffffffffffffffffff1673ffffffffffffffffffffffffffffffffffffffff1681526020019081526020016000206000015414610f62576040517f08c379a00000000000000000000000000000000000000000000000000000000081526004018080602001828103825260208152602001807f4f6e6c79206f6e652062696420706572206164647265737320616c6c6f77656481525060200191505060405180910390fd5b600354341015610fbd576040517f08c379a0000000000000000000000000000000000000000000000000000000008152600401808060200182810382526026815260200180611d5e6026913960400191505060405180910390fd5b60405180606001604052808381526020018281526020016000815250600e60003373ffffffffffffffffffffffffffffffffffffffff1673ffffffffffffffffffffffffffffffffffffffff16815260200190815260200160002060008201518160000155602082015181600101908051906020019061103e929190611c73565b5060408201518160020155905050600f3390806001815401808255809150509060018203906000526020600020016000909192909190916101000a81548173ffffffffffffffffffffffffffffffffffffffff021916908373ffffffffffffffffffffffffffffffffffffffff1602179055505034600d60003373ffffffffffffffffffffffffffffffffffffffff1673ffffffffffffffffffffffffffffffffffffffff168152602001908152602001600020600082825401925050819055506006600081548092919060010191905055505050565b6060600554421015611172576040517f08c379a0000000000000000000000000000000000000000000000000000000008152600401808060200182810382526024815260200180611d196024913960400191505060405180910390fd5b6000809054906101000a900473ffffffffffffffffffffffffffffffffffffffff1673ffffffffffffffffffffffffffffffffffffffff163373ffffffffffffffffffffffffffffffffffffffff1614611234576040517f08c379a000000000000000000000000000000000000000000000000000000000815260040180806020018281038252601c8152602001807f43616e206f6e6c792062652063616c6c65642062792073656c6c65720000000081525060200191505060405180910390fd5b600060015414156113de5760008090505b6006548110156113d857600754600e6000600f848154811061126357fe5b9060005260206000200160009054906101000a900473ffffffffffffffffffffffffffffffffffffffff1673ffffffffffffffffffffffffffffffffffffffff1673ffffffffffffffffffffffffffffffffffffffff1681526020019081526020016000206002015411156113cb57600e6000600f83815481106112e357fe5b9060005260206000200160009054906101000a900473ffffffffffffffffffffffffffffffffffffffff1673ffffffffffffffffffffffffffffffffffffffff1673ffffffffffffffffffffffffffffffffffffffff16815260200190815260200160002060020154600781905550600f818154811061135f57fe5b9060005260206000200160009054906101000a900473ffffffffffffffffffffffffffffffffffffffff16600860006101000a81548173ffffffffffffffffffffffffffffffffffffffff021916908373ffffffffffffffffffffffffffffffffffffffff1602179055505b8080600101915050611245565b50611968565b600180541415611692576000600754905060008090505b60065481101561168b5781600e6000600f848154811061141157fe5b9060005260206000200160009054906101000a900473ffffffffffffffffffffffffffffffffffffffff1673ffffffffffffffffffffffffffffffffffffffff1673ffffffffffffffffffffffffffffffffffffffff168152602001908152602001600020600201541061157b5781600781905550600e6000600f838154811061149757fe5b9060005260206000200160009054906101000a900473ffffffffffffffffffffffffffffffffffffffff1673ffffffffffffffffffffffffffffffffffffffff1673ffffffffffffffffffffffffffffffffffffffff168152602001908152602001600020600201549150600f818154811061150f57fe5b9060005260206000200160009054906101000a900473ffffffffffffffffffffffffffffffffffffffff16600860006101000a81548173ffffffffffffffffffffffffffffffffffffffff021916908373ffffffffffffffffffffffffffffffffffffffff1602179055505b600754600e6000600f848154811061158f57fe5b9060005260206000200160009054906101000a900473ffffffffffffffffffffffffffffffffffffffff1673ffffffffffffffffffffffffffffffffffffffff1673ffffffffffffffffffffffffffffffffffffffff168152602001908152602001600020600201541061167e57600e6000600f838154811061160e57fe5b9060005260206000200160009054906101000a900473ffffffffffffffffffffffffffffffffffffffff1673ffffffffffffffffffffffffffffffffffffffff1673ffffffffffffffffffffffffffffffffffffffff168152602001908152602001600020600201546007819055505b80806001019150506113f5565b5050611967565b6002600154141561196657600080905060008090505b60065481101561173d57600e6000600f83815481106116c357fe5b9060005260206000200160009054906101000a900473ffffffffffffffffffffffffffffffffffffffff1673ffffffffffffffffffffffffffffffffffffffff1673ffffffffffffffffffffffffffffffffffffffff168152602001908152602001600020600201548201915080806001019150506116a8565b50600081905060008090505b6006548110156119625781600654600e6000600f858154811061176857fe5b9060005260206000200160009054906101000a900473ffffffffffffffffffffffffffffffffffffffff1673ffffffffffffffffffffffffffffffffffffffff1673ffffffffffffffffffffffffffffffffffffffff16815260200190815260200160002060020154028403101561195557600e6000600f83815481106117eb57fe5b9060005260206000200160009054906101000a900473ffffffffffffffffffffffffffffffffffffffff1673ffffffffffffffffffffffffffffffffffffffff1673ffffffffffffffffffffffffffffffffffffffff16815260200190815260200160002060020154600781905550600f818154811061186757fe5b9060005260206000200160009054906101000a900473ffffffffffffffffffffffffffffffffffffffff16600860006101000a81548173ffffffffffffffffffffffffffffffffffffffff021916908373ffffffffffffffffffffffffffffffffffffffff160217905550600654600e6000600f84815481106118e657fe5b9060005260206000200160009054906101000a900473ffffffffffffffffffffffffffffffffffffffff1673ffffffffffffffffffffffffffffffffffffffff1673ffffffffffffffffffffffffffffffffffffffff1681526020019081526020016000206002015402830391505b8080600101915050611749565b5050505b5b5b600754600d6000600860009054906101000a900473ffffffffffffffffffffffffffffffffffffffff1673ffffffffffffffffffffffffffffffffffffffff1673ffffffffffffffffffffffffffffffffffffffff1681526020019081526020016000206000828254039250508190555060008090505b600654811015611af0576000600f82815481106119f857fe5b9060005260206000200160009054906101000a900473ffffffffffffffffffffffffffffffffffffffff1690508073ffffffffffffffffffffffffffffffffffffffff166108fc600d6000600f8681548110611a5057fe5b9060005260206000200160009054906101000a900473ffffffffffffffffffffffffffffffffffffffff1673ffffffffffffffffffffffffffffffffffffffff1673ffffffffffffffffffffffffffffffffffffffff168152602001908152602001600020549081150290604051600060405180830381858888f19350505050158015611ae1573d6000803e3d6000fd5b505080806001019150506119df565b50600e6000600860009054906101000a900473ffffffffffffffffffffffffffffffffffffffff1673ffffffffffffffffffffffffffffffffffffffff1673ffffffffffffffffffffffffffffffffffffffff1681526020019081526020016000206001018054600181600116156101000203166002900480601f016020809104026020016040519081016040528092919081815260200182805460018160011615610100020316600290048015611be95780601f10611bbe57610100808354040283529160200191611be9565b820191906000526020600020905b815481529060010190602001808311611bcc57829003601f168201915b5050505050905090565b828054600181600116156101000203166002900490600052602060002090601f016020900481019282601f10611c3457805160ff1916838001178555611c62565b82800160010185558215611c62579182015b82811115611c61578251825591602001919060010190611c46565b5b509050611c6f9190611cf3565b5090565b828054600181600116156101000203166002900490600052602060002090601f016020900481019282601f10611cb457805160ff1916838001178555611ce2565b82800160010185558215611ce2579182015b82811115611ce1578251825591602001919060010190611cc6565b5b509050611cef9190611cf3565b5090565b611d1591905b80821115611d11576000816000905550600101611cf9565b5090565b9056fe52657665616c696e6720706572696f6420686173206e6f7420796574206578706972656452657665616c696e6720706572696f642069732079657420746f206578706972654269642073686f756c64206e6f74206265206c657373207468616e2062617365207072696365a265627a7a72315820389d7e33cf71b89b240b3b395375b324f56e31da21f5549a75c38ca77b1a0dd764736f6c63430005100032",
  "source": "pragma solidity >=0.4.0 <0.9.0;\n\n/* Auction strats:\n    0: First Price Sealed-Bid Auction\n    1: Second Price Sealed-Bid Auction\n    2: Average Price Sealed-Bid Auction\n*/\n\ncontract Auction { \n    struct Bid {\n        bytes32 hashedBid;\n        string public_key;\n        uint value;\n    }\n\n    address seller;\n    uint strat;\n    string name;\n    uint basePrice;\n    uint bidEnd;\n    uint public revealEnd;\n    uint noBids;\n    uint winAmount;\n    address winner;\n    string encrypted_item;\n    uint auctionStart;\n    uint bidDuration;\n    uint revealDuration;\n    mapping(address => uint) public balances;\n    mapping(address => Bid) public addrToBid;\n    address[] bidAddrs;\n    \n\n    constructor(string memory _name, uint _basePrice, uint _bidDuration, uint _revealDuration, uint _strat, address payable _seller) public {\n        name = _name;\n        strat = _strat;\n        basePrice = _basePrice;\n        auctionStart = block.timestamp;\n        bidEnd = block.timestamp + _bidDuration;\n        revealEnd = bidEnd + _revealDuration;\n        seller = _seller;\n        noBids = 0;\n        bidDuration = _bidDuration;\n        revealDuration = _revealDuration;\n        winAmount = 0;    \n    }\n\n    function bid(bytes32 _hash, string memory _public_key) public payable {\n        require(block.timestamp < bidEnd, \"Bidding period has expired\");\n        require(addrToBid[msg.sender].hashedBid == bytes32(0x0), \"Only one bid per address allowed\");\n        require(msg.value >= basePrice, \"Bid should not be less than base price\");\n\n        addrToBid[msg.sender] = Bid(_hash, _public_key, 0);\n        bidAddrs.push(msg.sender);\n        balances[msg.sender] += msg.value;\n        noBids++;\n    }\n    \n    function reveal(uint _amount) public {\n        require(block.timestamp >= bidEnd, \"Revealing period is yet to start\");\n        require(block.timestamp < revealEnd, \"Revealing period has expired\");\n        require(keccak256(abi.encodePacked(_amount)) == addrToBid[msg.sender].hashedBid, 'Hash not equal'); //sha3\n        require(_amount >= basePrice, \"Bid should not be less than base price\");\n        require(_amount <= balances[msg.sender], \"Bid less than deposit amount\");\n\n        addrToBid[msg.sender].value = _amount;\n    }\n\n    function endAuction() public returns (string memory) {\n        require(block.timestamp >= revealEnd, \"Revealing period has not yet expired\");\n        require(msg.sender == seller, \"Can only be called by seller\");\n        \n        \n        if(strat == 0){\n            for(uint i=0;i<noBids;i++){\n                if(addrToBid[bidAddrs[i]].value > winAmount){\n                    winAmount = addrToBid[bidAddrs[i]].value;\n                    winner = bidAddrs[i];\n                }\n            }\n        }\n        else if(strat == 1){\n            uint maxAmount = winAmount;\n            for(uint i=0;i<noBids;i++){\n                if(addrToBid[bidAddrs[i]].value >= maxAmount){\n                    winAmount = maxAmount;\n                    maxAmount = addrToBid[bidAddrs[i]].value;\n                    winner = bidAddrs[i];\n                }\n                if(addrToBid[bidAddrs[i]].value >= winAmount){\n                    winAmount = addrToBid[bidAddrs[i]].value;\n                }\n            }\n        }\n        else if(strat == 2){\n            uint totalAmount = 0;\n            for(uint i=0;i<noBids;i++){\n                totalAmount += addrToBid[bidAddrs[i]].value;\n            }\n            uint minDiff = totalAmount;\n            \n            for(uint i=0;i<noBids;i++){\n                if(totalAmount - (addrToBid[bidAddrs[i]].value * noBids) < minDiff){\n                    winAmount = addrToBid[bidAddrs[i]].value;\n                    winner = bidAddrs[i];\n                    minDiff = totalAmount - (addrToBid[bidAddrs[i]].value * noBids); \n                }\n            }\n        }\n\n        // Deduct winning amount from winner\n        balances[winner] -= winAmount;\n\n        //Return the money to the losers\n        for(uint i=0;i<noBids;i++){\n            address payable payable_add = address(uint160(bidAddrs[i])); \n            payable_add.transfer(balances[bidAddrs[i]]);\n        }\n\n        // Return the winner's public key to the seller\n        return addrToBid[winner].public_key;\n    }\n    \n    function transferItem(string memory _encrypted_item) public {\n        require(block.timestamp >= revealEnd, \"Revealing period is yet to expire\");\n        require(msg.sender == seller, \"Only callable by seller\");\n        address payable payable_seller = address(uint160(seller));\n        payable_seller.transfer(winAmount);    \n        encrypted_item = _encrypted_item;\n    }\n\n    function getItem() public view returns (string memory) {\n        require(block.timestamp >= revealEnd, \"Revealing period is yet to expire\");\n        return encrypted_item;\n    }    \n\n    function getSummary() public view returns (string memory, uint, uint, uint, uint, uint, uint, address) {\n        return (name, basePrice, auctionStart, bidDuration, revealDuration, strat, noBids, seller);\n    }\n\n    function alreadyBid(address bidder) public view returns (bool) {\n        return (addrToBid[bidder].hashedBid != bytes32(0x0));\n    }\n}\n\n",
  "sourcePath": "/mnt/d/Stuff/Sem7/Blockchain/solidity-mart/contracts/Auction.sol",
  "compiler": {
    "name": "solc",
    "version": "0.5.16+commit.9c3226ce.Emscripten.clang"
  },
  "schemaVersion": "3.4.3",
  "updatedAt": "2021-11-13T11:17:48.504Z",
  "devdoc": {
    "methods": {}
  },
  "userdoc": {
    "methods": {}
  }
}