{
  "contractName": "Listing",
  "abi": [
    {
      "inputs": [
        {
          "internalType": "string",
          "name": "_name",
          "type": "string"
        },
        {
          "internalType": "string",
          "name": "_description",
          "type": "string"
        },
        {
          "internalType": "uint256",
          "name": "_price",
          "type": "uint256"
        },
        {
          "internalType": "address",
          "name": "sender",
          "type": "address"
        }
      ],
      "payable": false,
      "stateMutability": "nonpayable",
      "type": "constructor"
    },
    {
      "constant": true,
      "inputs": [],
      "name": "getSummary",
      "outputs": [
        {
          "internalType": "string",
          "name": "",
          "type": "string"
        },
        {
          "internalType": "string",
          "name": "",
          "type": "string"
        },
        {
          "internalType": "uint256",
          "name": "",
          "type": "uint256"
        },
        {
          "internalType": "address",
          "name": "",
          "type": "address"
        },
        {
          "internalType": "string",
          "name": "",
          "type": "string"
        },
        {
          "internalType": "string",
          "name": "",
          "type": "string"
        },
        {
          "internalType": "enum Listing.State",
          "name": "",
          "type": "uint8"
        }
      ],
      "payable": false,
      "stateMutability": "view",
      "type": "function"
    },
    {
      "constant": false,
      "inputs": [
        {
          "internalType": "string",
          "name": "_buyer_public_key",
          "type": "string"
        }
      ],
      "name": "initiateSale",
      "outputs": [],
      "payable": true,
      "stateMutability": "payable",
      "type": "function"
    },
    {
      "constant": false,
      "inputs": [],
      "name": "getBuyerKey",
      "outputs": [
        {
          "internalType": "string",
          "name": "",
          "type": "string"
        }
      ],
      "payable": false,
      "stateMutability": "nonpayable",
      "type": "function"
    },
    {
      "constant": false,
      "inputs": [
        {
          "internalType": "string",
          "name": "_encrypted_item",
          "type": "string"
        }
      ],
      "name": "transferItem",
      "outputs": [],
      "payable": false,
      "stateMutability": "nonpayable",
      "type": "function"
    },
    {
      "constant": true,
      "inputs": [],
      "name": "getItem",
      "outputs": [
        {
          "internalType": "string",
          "name": "",
          "type": "string"
        }
      ],
      "payable": false,
      "stateMutability": "view",
      "type": "function"
    }
  ],
  "bytecode": "0x60806040523480156200001157600080fd5b506040516200132c3803806200132c833981810160405260808110156200003757600080fd5b81019080805160405193929190846401000000008211156200005857600080fd5b838201915060208201858111156200006f57600080fd5b82518660018202830111640100000000821117156200008d57600080fd5b8083526020830192505050908051906020019080838360005b83811015620000c3578082015181840152602081019050620000a6565b50505050905090810190601f168015620000f15780820380516001836020036101000a031916815260200191505b50604052602001805160405193929190846401000000008211156200011557600080fd5b838201915060208201858111156200012c57600080fd5b82518660018202830111640100000000821117156200014a57600080fd5b8083526020830192505050908051906020019080838360005b838110156200018057808201518184015260208101905062000163565b50505050905090810190601f168015620001ae5780820380516001836020036101000a031916815260200191505b506040526020018051906020019092919080519060200190929190505050600082101562000244576040517f08c379a000000000000000000000000000000000000000000000000000000000815260040180806020018281038252601c8152602001807f50726963652073686f756c64206265206e6f6e2d6e656761746976650000000081525060200191505060405180910390fd5b83600090805190602001906200025c929190620002ed565b50826001908051906020019062000275929190620002ed565b508160028190555080600360006101000a81548173ffffffffffffffffffffffffffffffffffffffff021916908373ffffffffffffffffffffffffffffffffffffffff1602179055506000600660006101000a81548160ff02191690836003811115620002de57fe5b0217905550505050506200039c565b828054600181600116156101000203166002900490600052602060002090601f016020900481019282601f106200033057805160ff191683800117855562000361565b8280016001018555821562000361579182015b828111156200036057825182559160200191906001019062000343565b5b50905062000370919062000374565b5090565b6200039991905b80821115620003955760008160009055506001016200037b565b5090565b90565b610f8080620003ac6000396000f3fe60806040526004361061004a5760003560e01c80630f9a83da1461004f5780634051ddac14610117578063565d9a241461033a5780636557a46f146103f5578063c412eaba14610485575b600080fd5b34801561005b57600080fd5b506101156004803603602081101561007257600080fd5b810190808035906020019064010000000081111561008f57600080fd5b8201836020820111156100a157600080fd5b803590602001918460018302840111640100000000831117156100c357600080fd5b91908080601f016020809104026020016040519081016040528093929190818152602001838380828437600081840152601f19601f820116905080830192505050505050509192919290505050610515565b005b34801561012357600080fd5b5061012c610722565b6040518080602001806020018881526020018773ffffffffffffffffffffffffffffffffffffffff1673ffffffffffffffffffffffffffffffffffffffff168152602001806020018060200186600381111561018457fe5b60ff16815260200185810385528c818151815260200191508051906020019080838360005b838110156101c45780820151818401526020810190506101a9565b50505050905090810190601f1680156101f15780820380516001836020036101000a031916815260200191505b5085810384528b818151815260200191508051906020019080838360005b8381101561022a57808201518184015260208101905061020f565b50505050905090810190601f1680156102575780820380516001836020036101000a031916815260200191505b50858103835288818151815260200191508051906020019080838360005b83811015610290578082015181840152602081019050610275565b50505050905090810190601f1680156102bd5780820380516001836020036101000a031916815260200191505b50858103825287818151815260200191508051906020019080838360005b838110156102f65780820151818401526020810190506102db565b50505050905090810190601f1680156103235780820380516001836020036101000a031916815260200191505b509b50505050505050505050505060405180910390f35b6103f36004803603602081101561035057600080fd5b810190808035906020019064010000000081111561036d57600080fd5b82018360208201111561037f57600080fd5b803590602001918460018302840111640100000000831117156103a157600080fd5b91908080601f016020809104026020016040519081016040528093929190818152602001838380828437600081840152601f19601f8201169050808301925050505050505091929192905050506109f1565b005b34801561040157600080fd5b5061040a610b41565b6040518080602001828103825283818151815260200191508051906020019080838360005b8381101561044a57808201518184015260208101905061042f565b50505050905090810190601f1680156104775780820380516001836020036101000a031916815260200191505b509250505060405180910390f35b34801561049157600080fd5b5061049a610d65565b6040518080602001828103825283818151815260200191508051906020019080838360005b838110156104da5780820151818401526020810190506104bf565b50505050905090810190601f1680156105075780820380516001836020036101000a031916815260200191505b509250505060405180910390f35b600360009054906101000a900473ffffffffffffffffffffffffffffffffffffffff1673ffffffffffffffffffffffffffffffffffffffff163373ffffffffffffffffffffffffffffffffffffffff16146105d8576040517f08c379a000000000000000000000000000000000000000000000000000000000815260040180806020018281038252601c8152602001807f43616e206f6e6c792062652063616c6c65642062792073656c6c65720000000081525060200191505060405180910390fd5b600260038111156105e557fe5b600660009054906101000a900460ff16600381111561060057fe5b14610673576040517f08c379a000000000000000000000000000000000000000000000000000000000815260040180806020018281038252601f8152602001807f53616c65206e6f74207965742052454345495645442062792073656c6c65720081525060200191505060405180910390fd5b8060059080519060200190610689929190610e84565b506000600360009054906101000a900473ffffffffffffffffffffffffffffffffffffffff1690508073ffffffffffffffffffffffffffffffffffffffff166108fc6002549081150290604051600060405180830381858888f193505050501580156106f9573d6000803e3d6000fd5b506003600660006101000a81548160ff0219169083600381111561071957fe5b02179055505050565b6060806000806060806000806001600254600360009054906101000a900473ffffffffffffffffffffffffffffffffffffffff1660046005600660009054906101000a900460ff16868054600181600116156101000203166002900480601f0160208091040260200160405190810160405280929190818152602001828054600181600116156101000203166002900480156107ff5780601f106107d4576101008083540402835291602001916107ff565b820191906000526020600020905b8154815290600101906020018083116107e257829003601f168201915b50505050509650858054600181600116156101000203166002900480601f01602080910402602001604051908101604052809291908181526020018280546001816001161561010002031660029004801561089b5780601f106108705761010080835404028352916020019161089b565b820191906000526020600020905b81548152906001019060200180831161087e57829003601f168201915b50505050509550828054600181600116156101000203166002900480601f0160208091040260200160405190810160405280929190818152602001828054600181600116156101000203166002900480156109375780601f1061090c57610100808354040283529160200191610937565b820191906000526020600020905b81548152906001019060200180831161091a57829003601f168201915b50505050509250818054600181600116156101000203166002900480601f0160208091040260200160405190810160405280929190818152602001828054600181600116156101000203166002900480156109d35780601f106109a8576101008083540402835291602001916109d3565b820191906000526020600020905b8154815290600101906020018083116109b657829003601f168201915b50505050509150965096509650965096509650965090919293949596565b600060038111156109fe57fe5b600660009054906101000a900460ff166003811115610a1957fe5b14610a8c576040517f08c379a00000000000000000000000000000000000000000000000000000000081526004018080602001828103825260128152602001807f4974656d206e6f7420617661696c61626c65000000000000000000000000000081525060200191505060405180910390fd5b6002543414610b03576040517f08c379a00000000000000000000000000000000000000000000000000000000081526004018080602001828103825260178152602001807f496e636f7272656374207061796d656e742076616c756500000000000000000081525060200191505060405180910390fd5b8060049080519060200190610b19929190610e84565b506001600660006101000a81548160ff02191690836003811115610b3957fe5b021790555050565b6060600360009054906101000a900473ffffffffffffffffffffffffffffffffffffffff1673ffffffffffffffffffffffffffffffffffffffff163373ffffffffffffffffffffffffffffffffffffffff1614610c06576040517f08c379a000000000000000000000000000000000000000000000000000000000815260040180806020018281038252601c8152602001807f43616e206f6e6c792062652063616c6c65642062792073656c6c65720000000081525060200191505060405180910390fd5b60016003811115610c1357fe5b600660009054906101000a900460ff166003811115610c2e57fe5b14610ca1576040517f08c379a00000000000000000000000000000000000000000000000000000000081526004018080602001828103825260168152602001807f53616c65206e6f742079657420494e495449415445440000000000000000000081525060200191505060405180910390fd5b6002600660006101000a81548160ff02191690836003811115610cc057fe5b021790555060048054600181600116156101000203166002900480601f016020809104026020016040519081016040528092919081815260200182805460018160011615610100020316600290048015610d5b5780601f10610d3057610100808354040283529160200191610d5b565b820191906000526020600020905b815481529060010190602001808311610d3e57829003601f168201915b5050505050905090565b6060600380811115610d7357fe5b600660009054906101000a900460ff166003811115610d8e57fe5b14610de4576040517f08c379a0000000000000000000000000000000000000000000000000000000008152600401808060200182810382526022815260200180610f2a6022913960400191505060405180910390fd5b60058054600181600116156101000203166002900480601f016020809104026020016040519081016040528092919081815260200182805460018160011615610100020316600290048015610e7a5780601f10610e4f57610100808354040283529160200191610e7a565b820191906000526020600020905b815481529060010190602001808311610e5d57829003601f168201915b5050505050905090565b828054600181600116156101000203166002900490600052602060002090601f016020900481019282601f10610ec557805160ff1916838001178555610ef3565b82800160010185558215610ef3579182015b82811115610ef2578251825591602001919060010190610ed7565b5b509050610f009190610f04565b5090565b610f2691905b80821115610f22576000816000905550600101610f0a565b5090565b9056fe4974656d206e6f7420796574207472616e736665727265642062792073656c6c6572a265627a7a72315820eab56f4d7078973fbe3ff775a91848b781e271e59e91a1b04d4b23328cfee4e764736f6c63430005100032",
  "source": "pragma solidity >=0.4.0 <0.9.0;\n\ncontract Listing {\n    enum State {\n        LISTED,\n        INITIATED,\n        RECEIVED,\n        SOLD\n    }\n    \n    string name;\n    string description;\n    uint price;\n    address seller;\n    string buyer_public_key;\n    string encrypted_item;\n    State state;\n\n    constructor(string memory _name, string memory _description, uint _price, address sender) public {\n        require(_price>=0, \"Price should be non-negative\");\n        name = _name;\n        description = _description;\n        price = _price;\n        seller = address(uint160(sender));\n        state = State.LISTED;\n    }\n\n    function getSummary() public view returns (string memory, string memory, uint, address, string memory , string memory, State){\n        return (name, description, price, seller, buyer_public_key, encrypted_item, state);\n    } \n\n    function initiateSale(string memory _buyer_public_key) public payable{\n        require(state == State.LISTED, \"Item not available\");\n        require(msg.value == price, \"Incorrect payment value\");\n        buyer_public_key = _buyer_public_key;\n        state = State.INITIATED;\n    }\n\n    function getBuyerKey() public returns (string memory) {\n        require(msg.sender == seller, \"Can only be called by seller\");\n        require(state == State.INITIATED, \"Sale not yet INITIATED\");\n        state = State.RECEIVED;\n        return buyer_public_key;\n    }\n\n    function transferItem(string memory _encrypted_item) public {\n        require(msg.sender == seller, \"Can only be called by seller\");\n        require(state == State.RECEIVED, \"Sale not yet RECEIVED by seller\");\n        encrypted_item = _encrypted_item;\n\n        address payable payable_seller = address(uint160(seller));\n        payable_seller.transfer(price);    \n        state = State.SOLD;\n    }\n\n    function getItem() public view returns (string memory) {\n        require(state == State.SOLD, \"Item not yet transferred by seller\");\n        return encrypted_item;\n    }\n}",
  "sourcePath": "/mnt/d/Stuff/Sem7/Blockchain/solidity-mart/contracts/Listing.sol",
  "compiler": {
    "name": "solc",
    "version": "0.5.16+commit.9c3226ce.Emscripten.clang"
  },
  "schemaVersion": "3.4.3",
  "updatedAt": "2021-10-15T14:46:05.310Z",
  "networkType": "ethereum",
  "devdoc": {
    "methods": {}
  },
  "userdoc": {
    "methods": {}
  }
}