{
  "contractName": "Listing",
  "abi": [
    {
      "inputs": [
        {
          "internalType": "string",
          "name": "_name",
          "type": "string"
        },
        {
          "internalType": "string",
          "name": "_description",
          "type": "string"
        },
        {
          "internalType": "uint256",
          "name": "_price",
          "type": "uint256"
        }
      ],
      "payable": false,
      "stateMutability": "nonpayable",
      "type": "constructor"
    },
    {
      "constant": false,
      "inputs": [
        {
          "internalType": "string",
          "name": "_buyer_public_key",
          "type": "string"
        }
      ],
      "name": "initiateSale",
      "outputs": [],
      "payable": true,
      "stateMutability": "payable",
      "type": "function"
    },
    {
      "constant": false,
      "inputs": [],
      "name": "getBuyerKey",
      "outputs": [
        {
          "internalType": "string",
          "name": "",
          "type": "string"
        }
      ],
      "payable": false,
      "stateMutability": "nonpayable",
      "type": "function"
    },
    {
      "constant": false,
      "inputs": [
        {
          "internalType": "string",
          "name": "_encrypted_item",
          "type": "string"
        }
      ],
      "name": "transferItem",
      "outputs": [],
      "payable": false,
      "stateMutability": "nonpayable",
      "type": "function"
    },
    {
      "constant": true,
      "inputs": [],
      "name": "getItem",
      "outputs": [
        {
          "internalType": "string",
          "name": "",
          "type": "string"
        }
      ],
      "payable": false,
      "stateMutability": "view",
      "type": "function"
    }
  ],
  "bytecode": "0x60806040523480156200001157600080fd5b5060405162000e1e38038062000e1e833981810160405260608110156200003757600080fd5b81019080805160405193929190846401000000008211156200005857600080fd5b838201915060208201858111156200006f57600080fd5b82518660018202830111640100000000821117156200008d57600080fd5b8083526020830192505050908051906020019080838360005b83811015620000c3578082015181840152602081019050620000a6565b50505050905090810190601f168015620000f15780820380516001836020036101000a031916815260200191505b50604052602001805160405193929190846401000000008211156200011557600080fd5b838201915060208201858111156200012c57600080fd5b82518660018202830111640100000000821117156200014a57600080fd5b8083526020830192505050908051906020019080838360005b838110156200018057808201518184015260208101905062000163565b50505050905090810190601f168015620001ae5780820380516001836020036101000a031916815260200191505b506040526020018051906020019092919050505060008110156200023a576040517f08c379a000000000000000000000000000000000000000000000000000000000815260040180806020018281038252601c8152602001807f50726963652073686f756c64206265206e6f6e2d6e656761746976650000000081525060200191505060405180910390fd5b826000908051906020019062000252929190620002e2565b5081600190805190602001906200026b929190620002e2565b508060028190555033600360006101000a81548173ffffffffffffffffffffffffffffffffffffffff021916908373ffffffffffffffffffffffffffffffffffffffff1602179055506000600660006101000a81548160ff02191690836003811115620002d457fe5b021790555050505062000391565b828054600181600116156101000203166002900490600052602060002090601f016020900481019282601f106200032557805160ff191683800117855562000356565b8280016001018555821562000356579182015b828111156200035557825182559160200191906001019062000338565b5b50905062000365919062000369565b5090565b6200038e91905b808211156200038a57600081600090555060010162000370565b5090565b90565b610a7d80620003a16000396000f3fe60806040526004361061003f5760003560e01c80630f9a83da14610044578063565d9a241461010c5780636557a46f146101c7578063c412eaba14610257575b600080fd5b34801561005057600080fd5b5061010a6004803603602081101561006757600080fd5b810190808035906020019064010000000081111561008457600080fd5b82018360208201111561009657600080fd5b803590602001918460018302840111640100000000831117156100b857600080fd5b91908080601f016020809104026020016040519081016040528093929190818152602001838380828437600081840152601f19601f8201169050808301925050505050505091929192905050506102e7565b005b6101c56004803603602081101561012257600080fd5b810190808035906020019064010000000081111561013f57600080fd5b82018360208201111561015157600080fd5b8035906020019184600183028401116401000000008311171561017357600080fd5b91908080601f016020809104026020016040519081016040528093929190818152602001838380828437600081840152601f19601f8201169050808301925050505050505091929192905050506104ee565b005b3480156101d357600080fd5b506101dc61063e565b6040518080602001828103825283818151815260200191508051906020019080838360005b8381101561021c578082015181840152602081019050610201565b50505050905090810190601f1680156102495780820380516001836020036101000a031916815260200191505b509250505060405180910390f35b34801561026357600080fd5b5061026c610862565b6040518080602001828103825283818151815260200191508051906020019080838360005b838110156102ac578082015181840152602081019050610291565b50505050905090810190601f1680156102d95780820380516001836020036101000a031916815260200191505b509250505060405180910390f35b600360009054906101000a900473ffffffffffffffffffffffffffffffffffffffff1673ffffffffffffffffffffffffffffffffffffffff163373ffffffffffffffffffffffffffffffffffffffff16146103aa576040517f08c379a000000000000000000000000000000000000000000000000000000000815260040180806020018281038252601c8152602001807f43616e206f6e6c792062652063616c6c65642062792073656c6c65720000000081525060200191505060405180910390fd5b600260038111156103b757fe5b600660009054906101000a900460ff1660038111156103d257fe5b14610445576040517f08c379a000000000000000000000000000000000000000000000000000000000815260040180806020018281038252601f8152602001807f53616c65206e6f74207965742052454345495645442062792073656c6c65720081525060200191505060405180910390fd5b806005908051906020019061045b929190610981565b50600360009054906101000a900473ffffffffffffffffffffffffffffffffffffffff1673ffffffffffffffffffffffffffffffffffffffff166108fc6002549081150290604051600060405180830381858888f193505050501580156104c6573d6000803e3d6000fd5b506003600660006101000a81548160ff021916908360038111156104e657fe5b021790555050565b600060038111156104fb57fe5b600660009054906101000a900460ff16600381111561051657fe5b14610589576040517f08c379a00000000000000000000000000000000000000000000000000000000081526004018080602001828103825260128152602001807f4974656d206e6f7420617661696c61626c65000000000000000000000000000081525060200191505060405180910390fd5b6002543414610600576040517f08c379a00000000000000000000000000000000000000000000000000000000081526004018080602001828103825260178152602001807f496e636f7272656374207061796d656e742076616c756500000000000000000081525060200191505060405180910390fd5b8060049080519060200190610616929190610981565b506000600660006101000a81548160ff0219169083600381111561063657fe5b021790555050565b6060600360009054906101000a900473ffffffffffffffffffffffffffffffffffffffff1673ffffffffffffffffffffffffffffffffffffffff163373ffffffffffffffffffffffffffffffffffffffff1614610703576040517f08c379a000000000000000000000000000000000000000000000000000000000815260040180806020018281038252601c8152602001807f43616e206f6e6c792062652063616c6c65642062792073656c6c65720000000081525060200191505060405180910390fd5b6001600381111561071057fe5b600660009054906101000a900460ff16600381111561072b57fe5b1461079e576040517f08c379a00000000000000000000000000000000000000000000000000000000081526004018080602001828103825260168152602001807f53616c65206e6f742079657420494e495449415445440000000000000000000081525060200191505060405180910390fd5b6002600660006101000a81548160ff021916908360038111156107bd57fe5b021790555060048054600181600116156101000203166002900480601f0160208091040260200160405190810160405280929190818152602001828054600181600116156101000203166002900480156108585780601f1061082d57610100808354040283529160200191610858565b820191906000526020600020905b81548152906001019060200180831161083b57829003601f168201915b5050505050905090565b606060038081111561087057fe5b600660009054906101000a900460ff16600381111561088b57fe5b146108e1576040517f08c379a0000000000000000000000000000000000000000000000000000000008152600401808060200182810382526022815260200180610a276022913960400191505060405180910390fd5b60058054600181600116156101000203166002900480601f0160208091040260200160405190810160405280929190818152602001828054600181600116156101000203166002900480156109775780601f1061094c57610100808354040283529160200191610977565b820191906000526020600020905b81548152906001019060200180831161095a57829003601f168201915b5050505050905090565b828054600181600116156101000203166002900490600052602060002090601f016020900481019282601f106109c257805160ff19168380011785556109f0565b828001600101855582156109f0579182015b828111156109ef5782518255916020019190600101906109d4565b5b5090506109fd9190610a01565b5090565b610a2391905b80821115610a1f576000816000905550600101610a07565b5090565b9056fe4974656d206e6f7420796574207472616e736665727265642062792073656c6c6572a265627a7a723158208ebfd54d4c0b8c0effdc64ed769bbeabd1057154ad58f4d705eae4d413cf585364736f6c63430005100032",
  "source": "pragma solidity >=0.4.0 <0.9.0;\n\ncontract Listing {\n    enum State {\n        LISTED,\n        INITIATED,\n        RECEIVED,\n        SOLD\n    }\n    \n    string name;\n    string description;\n    uint price;\n    address payable seller;\n    string buyer_public_key;\n    string encrypted_item;\n    State state;\n\n    constructor(string memory _name, string memory _description, uint _price) public {\n        require(_price>=0, \"Price should be non-negative\");\n        name = _name;\n        description = _description;\n        price = _price;\n        seller = address(uint160(msg.sender));\n        state = State.LISTED;\n    }\n\n    function initiateSale(string memory _buyer_public_key) public payable{\n        require(state == State.LISTED, \"Item not available\");\n        require(msg.value == price, \"Incorrect payment value\");\n        buyer_public_key = _buyer_public_key;\n        state = State.LISTED;\n    }\n\n    function getBuyerKey() public returns (string memory) {\n        require(msg.sender == seller, \"Can only be called by seller\");\n        require(state == State.INITIATED, \"Sale not yet INITIATED\");\n        state = State.RECEIVED;\n        return buyer_public_key;\n    }\n\n    function transferItem(string memory _encrypted_item) public {\n        require(msg.sender == seller, \"Can only be called by seller\");\n        require(state == State.RECEIVED, \"Sale not yet RECEIVED by seller\");\n        encrypted_item = _encrypted_item;\n        seller.transfer(price);    \n        state = State.SOLD;\n    }\n\n    function getItem() public view returns (string memory) {\n        require(state == State.SOLD, \"Item not yet transferred by seller\");\n        return encrypted_item;\n    }\n}",
  "sourcePath": "/Users/fractl/s7/solidity-mart/contracts/Listing.sol",
  "compiler": {
    "name": "solc",
    "version": "0.5.16+commit.9c3226ce.Emscripten.clang"
  },
  "schemaVersion": "3.4.3",
  "updatedAt": "2021-10-14T06:50:01.267Z",
  "devdoc": {
    "methods": {}
  },
  "userdoc": {
    "methods": {}
  }
}