{
  "contractName": "Factory",
  "abi": [
    {
      "anonymous": false,
      "inputs": [
        {
          "indexed": false,
          "internalType": "address",
          "name": "autionAddress",
          "type": "address"
        },
        {
          "indexed": false,
          "internalType": "string",
          "name": "name",
          "type": "string"
        },
        {
          "indexed": false,
          "internalType": "uint256",
          "name": "_strat",
          "type": "uint256"
        }
      ],
      "name": "AuctionCreated",
      "type": "event"
    },
    {
      "constant": true,
      "inputs": [
        {
          "internalType": "uint256",
          "name": "",
          "type": "uint256"
        }
      ],
      "name": "auctions",
      "outputs": [
        {
          "internalType": "contract Auction",
          "name": "",
          "type": "address"
        }
      ],
      "payable": false,
      "stateMutability": "view",
      "type": "function"
    },
    {
      "constant": false,
      "inputs": [
        {
          "internalType": "string",
          "name": "_name",
          "type": "string"
        },
        {
          "internalType": "uint256",
          "name": "_basePrice",
          "type": "uint256"
        },
        {
          "internalType": "uint256",
          "name": "_bidDuration",
          "type": "uint256"
        },
        {
          "internalType": "uint256",
          "name": "_revealDuration",
          "type": "uint256"
        },
        {
          "internalType": "uint256",
          "name": "_strat",
          "type": "uint256"
        }
      ],
      "name": "createAuction",
      "outputs": [],
      "payable": false,
      "stateMutability": "nonpayable",
      "type": "function"
    }
  ],
  "bytecode": "0x608060405234801561001057600080fd5b506119b2806100206000396000f3fe608060405234801561001057600080fd5b50600436106100365760003560e01c8063498aa49b1461003b578063571a26a0146100dc575b600080fd5b6100da600480360360a081101561005157600080fd5b810190808035906020019064010000000081111561006e57600080fd5b82018360208201111561008057600080fd5b803590602001918460018302840111640100000000831117156100a257600080fd5b90919293919293908035906020019092919080359060200190929190803590602001909291908035906020019092919050505061014a565b005b610108600480360360208110156100f257600080fd5b81019080803590602001909291905050506102e8565b604051808273ffffffffffffffffffffffffffffffffffffffff1673ffffffffffffffffffffffffffffffffffffffff16815260200191505060405180910390f35b6000808054905087878787878760405161016390610324565b80888152602001806020018681526020018581526020018481526020018381526020018281038252888882818152602001925080828437600081840152601f19601f82011690508083019250505098505050505050505050604051809103906000f0801580156101d7573d6000803e3d6000fd5b50905060008190806001815401808255809150509060018203906000526020600020016000909192909190916101000a81548173ffffffffffffffffffffffffffffffffffffffff021916908373ffffffffffffffffffffffffffffffffffffffff160217905550507f1213a5732f8b25273aaa6a88fcc260b1e20d69ef444066b48d9032a774994c9181888885604051808573ffffffffffffffffffffffffffffffffffffffff1673ffffffffffffffffffffffffffffffffffffffff168152602001806020018381526020018281038252858582818152602001925080828437600081840152601f19601f8201169050808301925050509550505050505060405180910390a150505050505050565b600081815481106102f557fe5b906000526020600020016000915054906101000a900473ffffffffffffffffffffffffffffffffffffffff1681565b61164c806103328339019056fe60806040523480156200001157600080fd5b506040516200164c3803806200164c833981810160405260c08110156200003757600080fd5b8101908080519060200190929190805160405193929190846401000000008211156200006257600080fd5b838201915060208201858111156200007957600080fd5b82518660018202830111640100000000821117156200009757600080fd5b8083526020830192505050908051906020019080838360005b83811015620000cd578082015181840152602081019050620000b0565b50505050905090810190601f168015620000fb5780820380516001836020036101000a031916815260200191505b50604052602001805190602001909291908051906020019092919080519060200190929190805190602001909291905050508560008190555084600390805190602001906200014c929190620001bc565b508060028190555083600481905550824201600581905550816005540160068190555033600160006101000a81548173ffffffffffffffffffffffffffffffffffffffff021916908373ffffffffffffffffffffffffffffffffffffffff1602179055505050505050506200026b565b828054600181600116156101000203166002900490600052602060002090601f016020900481019282601f10620001ff57805160ff191683800117855562000230565b8280016001018555821562000230579182015b828111156200022f57825182559160200191906001019062000212565b5b5090506200023f919062000243565b5090565b6200026891905b80821115620002645760008160009055506001016200024a565b5090565b90565b6113d1806200027b6000396000f3fe6080604052600436106100f35760003560e01c8063957bb1e01161008a578063c7876ea411610059578063c7876ea4146104d4578063decb3a90146104ff578063dfbf53ae1461052a578063f4c4537314610581576100f3565b8063957bb1e014610415578063a132f6dc14610443578063a6e664771461046e578063c2ca0ac514610499576100f3565b80632986c0e5116100c65780632986c0e51461037d5780632cf8d127146103a85780633ccfd60b146103d357806374b11d8a146103ea576100f3565b806301b258fe146100f857806306fdde03146101c05780630f9a83da1461025057806327e235e314610318575b600080fd5b34801561010457600080fd5b506101be6004803603602081101561011b57600080fd5b810190808035906020019064010000000081111561013857600080fd5b82018360208201111561014a57600080fd5b8035906020019184600183028401116401000000008311171561016c57600080fd5b91908080601f016020809104026020016040519081016040528093929190818152602001838380828437600081840152601f19601f8201169050808301925050505050505091929192905050506105e6565b005b3480156101cc57600080fd5b506101d56107a3565b6040518080602001828103825283818151815260200191508051906020019080838360005b838110156102155780820151818401526020810190506101fa565b50505050905090810190601f1680156102425780820380516001836020036101000a031916815260200191505b509250505060405180910390f35b34801561025c57600080fd5b506103166004803603602081101561027357600080fd5b810190808035906020019064010000000081111561029057600080fd5b8201836020820111156102a257600080fd5b803590602001918460018302840111640100000000831117156102c457600080fd5b91908080601f016020809104026020016040519081016040528093929190818152602001838380828437600081840152601f19601f820116905080830192505050505050509192919290505050610841565b005b34801561032457600080fd5b506103676004803603602081101561033b57600080fd5b81019080803573ffffffffffffffffffffffffffffffffffffffff169060200190929190505050610a69565b6040518082815260200191505060405180910390f35b34801561038957600080fd5b50610392610a81565b6040518082815260200191505060405180910390f35b3480156103b457600080fd5b506103bd610a87565b6040518082815260200191505060405180910390f35b3480156103df57600080fd5b506103e8610a8d565b005b3480156103f657600080fd5b506103ff610bbb565b6040518082815260200191505060405180910390f35b6104416004803603602081101561042b57600080fd5b8101908080359060200190929190505050610bc1565b005b34801561044f57600080fd5b50610458610dde565b6040518082815260200191505060405180910390f35b34801561047a57600080fd5b50610483610de4565b6040518082815260200191505060405180910390f35b3480156104a557600080fd5b506104d2600480360360208110156104bc57600080fd5b8101908080359060200190929190505050610dea565b005b3480156104e057600080fd5b506104e961130b565b6040518082815260200191505060405180910390f35b34801561050b57600080fd5b50610514611311565b6040518082815260200191505060405180910390f35b34801561053657600080fd5b5061053f611317565b604051808273ffffffffffffffffffffffffffffffffffffffff1673ffffffffffffffffffffffffffffffffffffffff16815260200191505060405180910390f35b34801561058d57600080fd5b506105d0600480360360208110156105a457600080fd5b81019080803573ffffffffffffffffffffffffffffffffffffffff16906020019092919050505061133d565b6040518082815260200191505060405180910390f35b600654421015610641576040517f08c379a00000000000000000000000000000000000000000000000000000000081526004018080602001828103825260218152602001806113566021913960400191505060405180910390fd5b600a60009054906101000a900473ffffffffffffffffffffffffffffffffffffffff1673ffffffffffffffffffffffffffffffffffffffff163373ffffffffffffffffffffffffffffffffffffffff1614610704576040517f08c379a000000000000000000000000000000000000000000000000000000000815260040180806020018281038252601f8152602001807f4f6e6c792063616c6c61626c652062792061756374696f6e2077696e6e65720081525060200191505060405180910390fd5b7f06607bb29e2d7d2f6fe0c16155c0fb4a0301a1de128073c811a900d9d058b6c4816040518080602001828103825283818151815260200191508051906020019080838360005b8381101561076657808201518184015260208101905061074b565b50505050905090810190601f1680156107935780820380516001836020036101000a031916815260200191505b509250505060405180910390a150565b60038054600181600116156101000203166002900480601f0160208091040260200160405190810160405280929190818152602001828054600181600116156101000203166002900480156108395780601f1061080e57610100808354040283529160200191610839565b820191906000526020600020905b81548152906001019060200180831161081c57829003601f168201915b505050505081565b60065442101561089c576040517f08c379a00000000000000000000000000000000000000000000000000000000081526004018080602001828103825260218152602001806113566021913960400191505060405180910390fd5b600160009054906101000a900473ffffffffffffffffffffffffffffffffffffffff1673ffffffffffffffffffffffffffffffffffffffff163373ffffffffffffffffffffffffffffffffffffffff161461095f576040517f08c379a00000000000000000000000000000000000000000000000000000000081526004018080602001828103825260178152602001807f4f6e6c792063616c6c61626c652062792073656c6c657200000000000000000081525060200191505060405180910390fd5b600160009054906101000a900473ffffffffffffffffffffffffffffffffffffffff1673ffffffffffffffffffffffffffffffffffffffff166108fc6009549081150290604051600060405180830381858888f193505050501580156109c9573d6000803e3d6000fd5b507f17f3b503e1c11ff4f6b46ae027dc084836c8db7b84e7e961bddce7e1702496cd816040518080602001828103825283818151815260200191508051906020019080838360005b83811015610a2c578082015181840152602081019050610a11565b50505050905090810190601f168015610a595780820380516001836020036101000a031916815260200191505b509250505060405180910390a150565b600b6020528060005260406000206000915090505481565b60005481565b60055481565b600654421015610ae8576040517f08c379a00000000000000000000000000000000000000000000000000000000081526004018080602001828103825260218152602001806113566021913960400191505060405180910390fd5b6000600b60003373ffffffffffffffffffffffffffffffffffffffff1673ffffffffffffffffffffffffffffffffffffffff1681526020019081526020016000205490506000600b60003373ffffffffffffffffffffffffffffffffffffffff1673ffffffffffffffffffffffffffffffffffffffff168152602001908152602001600020819055503373ffffffffffffffffffffffffffffffffffffffff166108fc829081150290604051600060405180830381858888f19350505050158015610bb7573d6000803e3d6000fd5b5050565b60075481565b6005544210610c38576040517f08c379a000000000000000000000000000000000000000000000000000000000815260040180806020018281038252601a8152602001807f42696464696e6720706572696f6420686173206578706972656400000000000081525060200191505060405180910390fd5b6000801b600c60003373ffffffffffffffffffffffffffffffffffffffff1673ffffffffffffffffffffffffffffffffffffffff1681526020019081526020016000205414610cef576040517f08c379a00000000000000000000000000000000000000000000000000000000081526004018080602001828103825260208152602001807f4f6e6c79206f6e652062696420706572206164647265737320616c6c6f77656481525060200191505060405180910390fd5b600454341015610d4a576040517f08c379a00000000000000000000000000000000000000000000000000000000081526004018080602001828103825260268152602001806113776026913960400191505060405180910390fd5b80600c60003373ffffffffffffffffffffffffffffffffffffffff1673ffffffffffffffffffffffffffffffffffffffff1681526020019081526020016000208190555034600b60003373ffffffffffffffffffffffffffffffffffffffff1673ffffffffffffffffffffffffffffffffffffffff1681526020019081526020016000206000828254019250508190555050565b60085481565b60065481565b600554421015610e62576040517f08c379a00000000000000000000000000000000000000000000000000000000081526004018080602001828103825260208152602001807f52657665616c696e6720706572696f642069732079657420746f20737461727481525060200191505060405180910390fd5b6006544210610ed9576040517f08c379a000000000000000000000000000000000000000000000000000000000815260040180806020018281038252601c8152602001807f52657665616c696e6720706572696f642068617320657870697265640000000081525060200191505060405180910390fd5b600c60003373ffffffffffffffffffffffffffffffffffffffff1673ffffffffffffffffffffffffffffffffffffffff1681526020019081526020016000205481604051602001808281526020019150506040516020818303038152906040528051906020012014610f4a57600080fd5b600454811015610fa5576040517f08c379a00000000000000000000000000000000000000000000000000000000081526004018080602001828103825260268152602001806113776026913960400191505060405180910390fd5b600b60003373ffffffffffffffffffffffffffffffffffffffff1673ffffffffffffffffffffffffffffffffffffffff1681526020019081526020016000205481111561105a576040517f08c379a000000000000000000000000000000000000000000000000000000000815260040180806020018281038252601c8152602001807f426964206c657373207468616e206465706f73697420616d6f756e740000000081525060200191505060405180910390fd5b600060025414156111a45760075481111561119f57600754600b6000600a60009054906101000a900473ffffffffffffffffffffffffffffffffffffffff1673ffffffffffffffffffffffffffffffffffffffff1673ffffffffffffffffffffffffffffffffffffffff16815260200190815260200160002060008282540192505081905550806007819055508060098190555033600a60006101000a81548173ffffffffffffffffffffffffffffffffffffffff021916908373ffffffffffffffffffffffffffffffffffffffff16021790555080600b6000600a60009054906101000a900473ffffffffffffffffffffffffffffffffffffffff1673ffffffffffffffffffffffffffffffffffffffff1673ffffffffffffffffffffffffffffffffffffffff168152602001908152602001600020600082825403925050819055505b611308565b6001600254141561130757600954600b6000600a60009054906101000a900473ffffffffffffffffffffffffffffffffffffffff1673ffffffffffffffffffffffffffffffffffffffff1673ffffffffffffffffffffffffffffffffffffffff16815260200190815260200160002060008282540192505081905550600754811061127b576007546008819055508060078190555033600a60006101000a81548173ffffffffffffffffffffffffffffffffffffffff021916908373ffffffffffffffffffffffffffffffffffffffff1602179055505b600854811061128c57806008819055505b600854600981905550600954600b6000600a60009054906101000a900473ffffffffffffffffffffffffffffffffffffffff1673ffffffffffffffffffffffffffffffffffffffff1673ffffffffffffffffffffffffffffffffffffffff168152602001908152602001600020600082825403925050819055505b5b50565b60045481565b60095481565b600a60009054906101000a900473ffffffffffffffffffffffffffffffffffffffff1681565b600c602052806000526040600020600091509050548156fe52657665616c696e6720706572696f642069732079657420746f206578706972654269642073686f756c64206e6f74206265206c657373207468616e2062617365207072696365a265627a7a723158206bbc534eac91b9a2ffcc24be0328764317d06c8f98fda0b4593f09307ac345e064736f6c63430005100032a265627a7a72315820798912d7bd00dd446df6bb8081225b91f2b08bd538cb9cc8763562a94d12120564736f6c63430005100032",
  "source": "pragma solidity >=0.4.0 <0.9.0;\n\n/* Auction strats:\n    0: First Price Sealed-Bid Auction\n    1: Second Price Sealed-Bid Auction\n    2: Average Price Sealed-Bid Auction\n*/\n\ncontract Factory{\n    Auction[] public auctions;\n\n    event AuctionCreated(address autionAddress, string name, uint _strat);\n    \n    function createAuction(string calldata _name, uint _basePrice, uint _bidDuration, uint _revealDuration, uint _strat) external {\n       Auction auction = new Auction(auctions.length, _name, _basePrice, _bidDuration, _revealDuration, _strat);\n       auctions.push(auction);\n       emit AuctionCreated(address(auction), _name, _strat);\n     }\n}\n\ncontract Auction { \n    uint public index;\n    \n    address payable seller;\n    uint strat;\n    string public name;\n    uint public basePrice;\n    uint public bidEnd;\n    uint public revealEnd;\n    uint public maxBid;\n    uint public secmaxBid;\n    uint public winAmount;\n    address public winner;\n\n\n    mapping(address => uint) public balances;\n    mapping(address => bytes32) public hashedBids;\n    \n    event ClaimInitiated(string _public_key);\n    event ItemTransferred(string _encrypted_item);\n    \n    constructor (uint _index, string memory _name, uint _basePrice, uint _bidDuration, uint _revealDuration, uint _strat) public {\n        index = _index;\n        name = _name;\n        strat = _strat;\n        basePrice = _basePrice;\n        bidEnd = block.timestamp + _bidDuration;\n        revealEnd = bidEnd + _revealDuration;\n        seller = msg.sender;\n    }\n    \n    function bid(bytes32 hash) public payable {\n        require(block.timestamp < bidEnd, \"Bidding period has expired\");\n        require(hashedBids[msg.sender] == bytes32(0x0), \"Only one bid per address allowed\");\n        require(msg.value >= basePrice, \"Bid should not be less than base price\");\n        \n        hashedBids[msg.sender] = hash;\n        balances[msg.sender] += msg.value;\n    }\n    \n    function reveal(uint amount) public {\n        require(block.timestamp >= bidEnd, \"Revealing period is yet to start\");\n        require(block.timestamp < revealEnd, \"Revealing period has expired\");\n        require(keccak256(abi.encodePacked(amount)) == hashedBids[msg.sender]); //sha3\n        require(amount >= basePrice, \"Bid should not be less than base price\");\n        require(amount <= balances[msg.sender], \"Bid less than deposit amount\");\n    \n        if(strat == 0){\n            if(amount > maxBid){\n                balances[winner] += maxBid;\n                maxBid = amount;\n                winAmount = amount;\n                winner = msg.sender;\n                balances[winner] -= amount;\n            }\n        }\n        else if(strat == 1){\n            balances[winner] += winAmount;\n            if(amount >= maxBid){\n                secmaxBid = maxBid;\n                maxBid = amount;\n                winner = msg.sender;\n            }\n            if(amount >= secmaxBid){\n                secmaxBid = amount;\n            }\n            winAmount = secmaxBid;\n            balances[winner] -= winAmount;\n        }\n    }\n    \n    function withdraw() public {\n        require(block.timestamp >= revealEnd, \"Revealing period is yet to expire\");\n        uint amount = balances[msg.sender];\n        balances[msg.sender] = 0;\n        msg.sender.transfer(amount);\n    }\n    \n    function initiateClaim(string memory _public_key) public {\n        require(block.timestamp >= revealEnd, \"Revealing period is yet to expire\");\n        require(msg.sender == winner, \"Only callable by auction winner\");\n        emit ClaimInitiated(_public_key);\n    }\n    \n    function transferItem(string memory _encrypted_item) public {\n        require(block.timestamp >= revealEnd, \"Revealing period is yet to expire\");\n        require(msg.sender == seller, \"Only callable by seller\");\n        seller.transfer(winAmount);\n        emit ItemTransferred(_encrypted_item);\n    }\n}\n\n",
  "sourcePath": "/mnt/d/Stuff/Sem7/Blockchain/web3.0-tutorial-truffle/contracts/Auction.sol",
  "compiler": {
    "name": "solc",
    "version": "0.5.16+commit.9c3226ce.Emscripten.clang"
  },
  "schemaVersion": "3.4.3",
  "updatedAt": "2021-10-11T18:30:59.217Z",
  "devdoc": {
    "methods": {}
  },
  "userdoc": {
    "methods": {}
  }
}