{
  "contractName": "SolidityMart",
  "abi": [
    {
      "inputs": [],
      "payable": true,
      "stateMutability": "payable",
      "type": "constructor"
    },
    {
      "anonymous": false,
      "inputs": [
        {
          "indexed": false,
          "internalType": "uint256",
          "name": "listingId",
          "type": "uint256"
        }
      ],
      "name": "FundsReleased",
      "type": "event"
    },
    {
      "anonymous": false,
      "inputs": [
        {
          "indexed": false,
          "internalType": "uint256",
          "name": "listingId",
          "type": "uint256"
        },
        {
          "indexed": false,
          "internalType": "string",
          "name": "encrypted_item",
          "type": "string"
        }
      ],
      "name": "ItemTransferred",
      "type": "event"
    },
    {
      "anonymous": false,
      "inputs": [
        {
          "indexed": false,
          "internalType": "uint256",
          "name": "listingId",
          "type": "uint256"
        },
        {
          "indexed": false,
          "internalType": "string",
          "name": "name",
          "type": "string"
        },
        {
          "indexed": false,
          "internalType": "string",
          "name": "description",
          "type": "string"
        },
        {
          "indexed": false,
          "internalType": "uint256",
          "name": "price",
          "type": "uint256"
        },
        {
          "indexed": false,
          "internalType": "address",
          "name": "seller",
          "type": "address"
        }
      ],
      "name": "NewListing",
      "type": "event"
    },
    {
      "anonymous": false,
      "inputs": [
        {
          "indexed": false,
          "internalType": "uint256",
          "name": "listingId",
          "type": "uint256"
        },
        {
          "indexed": false,
          "internalType": "string",
          "name": "buyer_public_possible",
          "type": "string"
        }
      ],
      "name": "SaleInitiated",
      "type": "event"
    },
    {
      "constant": false,
      "inputs": [
        {
          "internalType": "string",
          "name": "_name",
          "type": "string"
        },
        {
          "internalType": "string",
          "name": "_description",
          "type": "string"
        },
        {
          "internalType": "uint256",
          "name": "_price",
          "type": "uint256"
        }
      ],
      "name": "createListing",
      "outputs": [],
      "payable": false,
      "stateMutability": "nonpayable",
      "type": "function"
    },
    {
      "constant": true,
      "inputs": [],
      "name": "listItems",
      "outputs": [
        {
          "components": [
            {
              "internalType": "uint256",
              "name": "listing_id",
              "type": "uint256"
            },
            {
              "internalType": "string",
              "name": "name",
              "type": "string"
            },
            {
              "internalType": "string",
              "name": "description",
              "type": "string"
            },
            {
              "internalType": "uint256",
              "name": "price",
              "type": "uint256"
            },
            {
              "internalType": "address",
              "name": "seller",
              "type": "address"
            },
            {
              "internalType": "bool",
              "name": "available",
              "type": "bool"
            }
          ],
          "internalType": "struct SolidityMart.Listing[]",
          "name": "",
          "type": "tuple[]"
        }
      ],
      "payable": false,
      "stateMutability": "view",
      "type": "function"
    },
    {
      "constant": false,
      "inputs": [
        {
          "internalType": "uint256",
          "name": "_id",
          "type": "uint256"
        },
        {
          "internalType": "string",
          "name": "_buyer_public_key",
          "type": "string"
        }
      ],
      "name": "initiateSale",
      "outputs": [],
      "payable": true,
      "stateMutability": "payable",
      "type": "function"
    },
    {
      "constant": false,
      "inputs": [
        {
          "internalType": "uint256",
          "name": "_id",
          "type": "uint256"
        },
        {
          "internalType": "string",
          "name": "_encrypted_item",
          "type": "string"
        }
      ],
      "name": "transferItem",
      "outputs": [],
      "payable": false,
      "stateMutability": "nonpayable",
      "type": "function"
    },
    {
      "constant": false,
      "inputs": [
        {
          "internalType": "uint256",
          "name": "_id",
          "type": "uint256"
        }
      ],
      "name": "releaseFunds",
      "outputs": [],
      "payable": false,
      "stateMutability": "nonpayable",
      "type": "function"
    }
  ],
  "bytecode": "0x608060405260008081905550600060018190555061128b806100226000396000f3fe60806040526004361061004a5760003560e01c8063355eefc81461004f5780634652c3e21461007a5780634d68282f146100a3578063501b0fa8146100cc5780635735b284146100f5575b600080fd5b34801561005b57600080fd5b50610064610111565b6040516100719190610f08565b60405180910390f35b34801561008657600080fd5b506100a1600480360361009c9190810190610ab6565b6103c2565b005b3480156100af57600080fd5b506100ca60048036036100c59190810190610b35565b61058d565b005b3480156100d857600080fd5b506100f360048036036100ee9190810190610b5e565b610670565b005b61010f600480360361010a9190810190610b5e565b6107c5565b005b6060806001546000540360405190808252806020026020018201604052801561015457816020015b61014161095a565b8152602001906001900390816101395790505b509050600080905060008090505b6000548110156103b9576002818154811061017957fe5b906000526020600020906005020160040160149054906101000a900460ff16156103ac57600281815481106101aa57fe5b90600052602060002090600502016040518060c001604052908160008201548152602001600182018054600181600116156101000203166002900480601f0160208091040260200160405190810160405280929190818152602001828054600181600116156101000203166002900480156102665780601f1061023b57610100808354040283529160200191610266565b820191906000526020600020905b81548152906001019060200180831161024957829003601f168201915b50505050508152602001600282018054600181600116156101000203166002900480601f0160208091040260200160405190810160405280929190818152602001828054600181600116156101000203166002900480156103085780601f106102dd57610100808354040283529160200191610308565b820191906000526020600020905b8154815290600101906020018083116102eb57829003601f168201915b50505050508152602001600382015481526020016004820160009054906101000a900473ffffffffffffffffffffffffffffffffffffffff1673ffffffffffffffffffffffffffffffffffffffff1673ffffffffffffffffffffffffffffffffffffffff1681526020016004820160149054906101000a900460ff16151515158152505083838151811061039857fe5b602002602001018190525081806001019250505b8080600101915050610162565b50819250505090565b6000811015610406576040517f08c379a00000000000000000000000000000000000000000000000000000000081526004016103fd90610f2a565b60405180910390fd5b60008054905060026040518060c001604052808381526020018681526020018581526020018481526020013373ffffffffffffffffffffffffffffffffffffffff16815260200160011515815250908060018154018082558091505090600182039060005260206000209060050201600090919290919091506000820151816000015560208201518160010190805190602001906104a59291906109a8565b5060408201518160020190805190602001906104c29291906109a8565b506060820151816003015560808201518160040160006101000a81548173ffffffffffffffffffffffffffffffffffffffff021916908373ffffffffffffffffffffffffffffffffffffffff16021790555060a08201518160040160146101000a81548160ff02191690831515021790555050505060008081548092919060010191905055507f7221bf4583ee0e9f59fd395b01aeb1b44fd45d9c8594bf13b21f7bd0f5f3f45a818585853360405161057f959493929190611035565b60405180910390a150505050565b60006002828154811061059c57fe5b906000526020600020906005020160040160009054906101000a900473ffffffffffffffffffffffffffffffffffffffff1690508073ffffffffffffffffffffffffffffffffffffffff166108fc600284815481106105f757fe5b9060005260206000209060050201600301549081150290604051600060405180830381858888f19350505050158015610634573d6000803e3d6000fd5b507f952b264c8e0a06cddb4bbaa6d6af1d565145329fd95bbe72cb2b53942b2dc966826040516106649190610fea565b60405180910390a15050565b6002828154811061067d57fe5b906000526020600020906005020160040160149054906101000a900460ff16156106dc576040517f08c379a00000000000000000000000000000000000000000000000000000000081526004016106d390610f6a565b60405180910390fd5b3373ffffffffffffffffffffffffffffffffffffffff166002838154811061070057fe5b906000526020600020906005020160040160009054906101000a900473ffffffffffffffffffffffffffffffffffffffff1673ffffffffffffffffffffffffffffffffffffffff1614610788576040517f08c379a000000000000000000000000000000000000000000000000000000000815260040161077f90610fca565b60405180910390fd5b7fe249f91defc9d239ab3422ebb47413dbe0d8eedad8b082f3d4bcea553d6e398d82826040516107b9929190611005565b60405180910390a15050565b6000548210610809576040517f08c379a000000000000000000000000000000000000000000000000000000000815260040161080090610f8a565b60405180910390fd5b6002828154811061081657fe5b906000526020600020906005020160040160149054906101000a900460ff16610874576040517f08c379a000000000000000000000000000000000000000000000000000000000815260040161086b90610faa565b60405180910390fd5b6002828154811061088157fe5b90600052602060002090600502016003015434146108d4576040517f08c379a00000000000000000000000000000000000000000000000000000000081526004016108cb90610f4a565b60405180910390fd5b6000600283815481106108e357fe5b906000526020600020906005020160040160146101000a81548160ff0219169083151502179055506001600081548092919060010191905055507f2cbbfe0530dafc2aa8ca84c9b1b6e0625c0039faf0c48f1e8eb177918fcf0b87828260405161094e929190611005565b60405180910390a15050565b6040518060c0016040528060008152602001606081526020016060815260200160008152602001600073ffffffffffffffffffffffffffffffffffffffff1681526020016000151581525090565b828054600181600116156101000203166002900490600052602060002090601f016020900481019282601f106109e957805160ff1916838001178555610a17565b82800160010185558215610a17579182015b82811115610a165782518255916020019190600101906109fb565b5b509050610a249190610a28565b5090565b610a4a91905b80821115610a46576000816000905550600101610a2e565b5090565b90565b600082601f830112610a5e57600080fd5b8135610a71610a6c826110c3565b611096565b91508082526020830160208301858383011115610a8d57600080fd5b610a988382846111de565b50505092915050565b600081359050610ab081611231565b92915050565b600080600060608486031215610acb57600080fd5b600084013567ffffffffffffffff811115610ae557600080fd5b610af186828701610a4d565b935050602084013567ffffffffffffffff811115610b0e57600080fd5b610b1a86828701610a4d565b9250506040610b2b86828701610aa1565b9150509250925092565b600060208284031215610b4757600080fd5b6000610b5584828501610aa1565b91505092915050565b60008060408385031215610b7157600080fd5b6000610b7f85828601610aa1565b925050602083013567ffffffffffffffff811115610b9c57600080fd5b610ba885828601610a4d565b9150509250929050565b6000610bbe8383610e5a565b905092915050565b610bcf816111a8565b82525050565b610bde81611160565b82525050565b6000610bef826110ff565b610bf9818561112d565b935083602082028501610c0b856110ef565b8060005b85811015610c475784840389528151610c288582610bb2565b9450610c3383611120565b925060208a01995050600181019050610c0f565b50829750879550505050505092915050565b610c6281611172565b82525050565b6000610c7382611115565b610c7d818561114f565b9350610c8d8185602086016111ed565b610c9681611220565b840191505092915050565b6000610cac8261110a565b610cb6818561113e565b9350610cc68185602086016111ed565b610ccf81611220565b840191505092915050565b6000610ce7601c8361114f565b91507f50726963652073686f756c64206265206e6f6e2d6e65676174697665000000006000830152602082019050919050565b6000610d2760178361114f565b91507f5061796d656e742076616c7565206e6f7420657175616c0000000000000000006000830152602082019050919050565b6000610d6760118361114f565b91507f4974656d206e6f7420736f6c64207965740000000000000000000000000000006000830152602082019050919050565b6000610da7600a8361114f565b91507f496e76616c6964204944000000000000000000000000000000000000000000006000830152602082019050919050565b6000610de760128361114f565b91507f4974656d206e6f7420617661696c61626c6500000000000000000000000000006000830152602082019050919050565b6000610e27601c8361114f565b91507f43616e206f6e6c792062652063616c6c65642062792073656c6c6572000000006000830152602082019050919050565b600060c083016000830151610e726000860182610eea565b5060208301518482036020860152610e8a8282610ca1565b91505060408301518482036040860152610ea48282610ca1565b9150506060830151610eb96060860182610eea565b506080830151610ecc6080860182610bd5565b5060a0830151610edf60a0860182610c59565b508091505092915050565b610ef38161119e565b82525050565b610f028161119e565b82525050565b60006020820190508181036000830152610f228184610be4565b905092915050565b60006020820190508181036000830152610f4381610cda565b9050919050565b60006020820190508181036000830152610f6381610d1a565b9050919050565b60006020820190508181036000830152610f8381610d5a565b9050919050565b60006020820190508181036000830152610fa381610d9a565b9050919050565b60006020820190508181036000830152610fc381610dda565b9050919050565b60006020820190508181036000830152610fe381610e1a565b9050919050565b6000602082019050610fff6000830184610ef9565b92915050565b600060408201905061101a6000830185610ef9565b818103602083015261102c8184610c68565b90509392505050565b600060a08201905061104a6000830188610ef9565b818103602083015261105c8187610c68565b905081810360408301526110708186610c68565b905061107f6060830185610ef9565b61108c6080830184610bc6565b9695505050505050565b6000604051905081810181811067ffffffffffffffff821117156110b957600080fd5b8060405250919050565b600067ffffffffffffffff8211156110da57600080fd5b601f19601f8301169050602081019050919050565b6000819050602082019050919050565b600081519050919050565b600081519050919050565b600081519050919050565b6000602082019050919050565b600082825260208201905092915050565b600082825260208201905092915050565b600082825260208201905092915050565b600061116b8261117e565b9050919050565b60008115159050919050565b600073ffffffffffffffffffffffffffffffffffffffff82169050919050565b6000819050919050565b60006111b3826111ba565b9050919050565b60006111c5826111cc565b9050919050565b60006111d78261117e565b9050919050565b82818337600083830152505050565b60005b8381101561120b5780820151818401526020810190506111f0565b8381111561121a576000848401525b50505050565b6000601f19601f8301169050919050565b61123a8161119e565b811461124557600080fd5b5056fea365627a7a723158204c692f36235d9f3daff8ff461ba56d768b91a6acd5f47c52e41f67d02a5779476c6578706572696d656e74616cf564736f6c63430005100040",
  "source": "pragma solidity >=0.4.22 <0.9.0;\npragma experimental ABIEncoderV2;\n\n\n/**\n * @title SolidityMart\n * @author Akshat Chajjer, Shivansh Seth, Istasis Mishra\n * @dev A smart contract to create listings, view available listings and buy the products\n */\ncontract SolidityMart {\n    uint total_listings; ///< total number of listings made through the contract\n    uint unavailable_listings; ///< number of listings which have already been sold\n    /**\n     * @dev Constructor for the contract. Inits total_listings and unavailable_listings to 0\n     */\n    constructor() public payable{\n        total_listings = 0;\n        unavailable_listings = 0;\n    }\n    \n    event NewListing(uint listingId, string name, string description, uint price, address seller); \n    event SaleInitiated(uint listingId, string buyer_public_possible); ///< Event alerting the buyer about a valid buy request\n    event ItemTransferred(uint listingId, string encrypted_item); ///< Event denoting that the item has been delivered to buyer\n    event FundsReleased(uint listingId); ///< Event denoting that funds have been transferred to seller\n    \n    /*! Struct for storing all the data related to a listing */\n    struct Listing {\n        uint listing_id;\n        string name;\n        string description;\n        uint price;\n        address seller;\n        bool available;\n    }\n\n    Listing[] listings; ///< Array to store all listings made through the contract \n\n    /**\n     * @dev Creates a listing with provided information\n     * @param _name Name of the the listed item (not same as the item string)\n     * @param _description A brief description of the item \n     * @param _price The asking price for the item as decided by the buyer\n    */\n    function createListing(string memory _name, string memory _description, uint _price) public {\n        require(_price>=0, \"Price should be non-negative\");\n        uint id = total_listings;\n        listings.push(Listing(id, _name, _description, _price, msg.sender, true));\n        total_listings++;\n        emit NewListing(id, _name, _description, _price, msg.sender);\n    }\n    \n    /**\n     * @dev Returns the list of all available listings\n     * @return Listing[] \n    */\n    function listItems() public view returns (Listing[] memory) {\n        Listing[] memory _available = new Listing[](total_listings - unavailable_listings);\n        uint k = 0;\n        for (uint i=0;i<total_listings;i++){\n            if(listings[i].available){\n                _available[k] = listings[i];\n                k++;\n            }\n        }\n        return _available;\n    }\n\n    /**\n     * @dev Payable to be called by buyer to initiate the sale. Emits SaleInitiated() to alert the buyer, if the listing is available and the value matches asking price\n     * @param _id ID of the listing to be bought\n     * @param _buyer_public_key Public key corresponding to the buyers private key. This key will be used by the seller to encrypt the item string before transfer. The encryption algorithm has to be decided beforehand (Test cases use RSA)\n    */\n    function initiateSale(uint _id, string memory _buyer_public_key) public payable{\n        require(_id < total_listings, \"Invalid ID\");\n        require(listings[_id].available, \"Item not available\");\n        require(msg.value == listings[_id].price, \"Payment value not equal\");\n\n        listings[_id].available = false;\n        unavailable_listings++;\n        emit SaleInitiated(_id, _buyer_public_key);\n    }\n\n    /**\n     * @dev To be called by seller on hearing a SaleInitiated() event. Emits a ItemTransferred() event which provides the encrypted string to the buyer (or anyone else listening)\n     * @param _id ID of the item to be transferred\n     * @param _encrypted_item Item string encrypted with the public key of the buyer\n     */\n    function transferItem(uint _id, string memory _encrypted_item) public {\n        require(!listings[_id].available, \"Item not sold yet\");\n        require(listings[_id].seller == msg.sender, \"Can only be called by seller\");\n        emit ItemTransferred(_id, _encrypted_item);\n    }\n\n    /**\n     * @dev To be called by buyer on hearing a ItemTransferred() event to confirm that item received is correct and release funds to seller.\n     * @param _id ID of the item sold\n     */\n    function releaseFunds(uint _id) public {\n        address payable _seller = address(uint160((listings[_id].seller)));\n        _seller.transfer(listings[_id].price);\n        emit FundsReleased(_id);\n    }\n}\n",
  "sourcePath": "/mnt/d/Stuff/Sem7/Blockchain/solidity-mart/contracts/SolidityMart.sol",
  "compiler": {
    "name": "solc",
    "version": "0.5.16+commit.9c3226ce.Emscripten.clang"
  },
  "schemaVersion": "3.4.3",
  "updatedAt": "2021-10-12T12:23:35.866Z",
  "networkType": "ethereum",
  "devdoc": {
    "author": "Akshat Chajjer, Shivansh Seth, Istasis Mishra",
    "details": "A smart contract to create listings, view available listings and buy the products",
    "methods": {
      "constructor": {
        "details": "Constructor for the contract. Inits total_listings and unavailable_listings to 0"
      },
      "createListing(string,string,uint256)": {
        "details": "Creates a listing with provided information",
        "params": {
          "_description": "A brief description of the item ",
          "_name": "Name of the the listed item (not same as the item string)",
          "_price": "The asking price for the item as decided by the buyer"
        }
      },
      "initiateSale(uint256,string)": {
        "details": "Payable to be called by buyer to initiate the sale. Emits SaleInitiated() to alert the buyer, if the listing is available and the value matches asking price",
        "params": {
          "_buyer_public_key": "Public key corresponding to the buyers private key. This key will be used by the seller to encrypt the item string before transfer. The encryption algorithm has to be decided beforehand (Test cases use RSA)",
          "_id": "ID of the listing to be bought"
        }
      },
      "listItems()": {
        "details": "Returns the list of all available listings",
        "return": "Listing[] "
      },
      "releaseFunds(uint256)": {
        "details": "To be called by buyer on hearing a ItemTransferred() event to confirm that item received is correct and release funds to seller.",
        "params": {
          "_id": "ID of the item sold"
        }
      },
      "transferItem(uint256,string)": {
        "details": "To be called by seller on hearing a SaleInitiated() event. Emits a ItemTransferred() event which provides the encrypted string to the buyer (or anyone else listening)",
        "params": {
          "_encrypted_item": "Item string encrypted with the public key of the buyer",
          "_id": "ID of the item to be transferred"
        }
      }
    },
    "title": "SolidityMart"
  },
  "userdoc": {
    "methods": {}
  }
}